:1000000076C090C08FC023CD5BCCF4CC99CCC5CC4E
:100010002ACCD6CB87C082CD85C0A8CD83C082C074
:1000200081C080C07FC033C146C186C199C1A0C113
:100030000CC238C249C2FFC14EC227C328C329C35C
:100040002AC32BC32CC32DC32EC36FC370C371C36C
:1000500072C373C374C375C376C3C3C3CAC3D1C3E6
:10006000D8C3DFC3E6C3ECC3F3C356737225630082
:10007000565361256300565372256325632563003B
:1000800056537225632563256300565372256325F5
:100090006325630056537225632563256300565319
:1000A00072256325632563005653722563256325F6
:1000B0006300565361256300565372256325630020
:1000C000303132333435363738394142434445468E
:1000D00000000001000800400000010004000001D1
:1000E00000080020004000800000010004001124EE
:1000F0001FBECFE5D4E0DEBFCDBF10E0A0E6B0E08C
:10010000E0E8FDE102C005900D92AA36B107D9F7EB
:1001100011E0AAE6B0E001C01D92AB38B107E1F7EB
:10012000F4D52CCE6DCFBD98C59A8D9A8E9AB89A7B
:10013000B99A8C9A8F9A8B9A8A9ABA9ABC9AC498CE
:1001400095989698C098C1989498979893989298F3
:100150000895FC0171836083538342831782168262
:10016000158214820895CF93DF93EC018C819D81D9
:10017000892B11F4E0E017C08E819F81E881F9811D
:10018000E80FF91FE08101969F838E836A817B814E
:100190008617970718F0A7DD9F838E838C819D813A
:1001A00001979D838C838E2FDF91CF910895FC0161
:1001B0009B018481958168177907A8F486819781CE
:1001C000860F971F978386836281738186179707AF
:1001D00018F089DD9783868384819581821B930B38
:1001E000958384830895158214820895FC01CB01C0
:1001F0002681378162817381820F931F74DD0190A4
:10020000F081E02DE80FF91F80810895CF93DF93EF
:10021000EC01462F2C813D816A817B8126173707AF
:1002200010F080E010C08E819F81820F931F5BDDF4
:10023000E881F981E80FF91F40838C819D81019647
:100240009D838C838FEFDF91CF910895FC0140E077
:1002500024813581828193812817390708F441E090
:10026000842F0895FC01158214820895CF93DF93A3
:10027000282FDB01EA0150968C915097E82FF0E08F
:10028000EA30F10508F04CC1ED5EFF4F0994909102
:100290006B00C90FD11D8881281721F49F5F9093AF
:1002A0006B0002C010926B0080916B00823009F0ED
:1002B00037C181E08CC02F3411F432E00CC02934F6
:1002C00019F430E084E008C0213621F448E030E041
:1002D00080E003C030E080E040E090E02D3409F49D
:1002E00091E0932B982B942B923051F0933018F48B
:1002F0009130D1F40AC0943041F09830A9F40CC088
:1003000050969C93509783E00CC082E050968C935B
:10031000509751969C930DC082E050968C935097C5
:1003200086E051968C9305C050961C92509751963A
:100330001C9210926B00F4C052968C9152978217C7
:1003400009F480C052962C93529751968C915197F4
:10035000863021F451961C92519774C083E0B8C046
:1003600011962C931197263008F46CC084E0B0C02D
:100370008C9111969C911197882361F1915011965F
:100380009C9311979F5F79F090916A00FB01E90FB0
:10039000F11D87A1821721F49F5F90936A0003C02B
:1003A00050961C92509711968C911197882309F0C2
:1003B000B7C050968C915097882309F4B1C05196DC
:1003C0008C915197813011F488E001C086E05096FD
:1003D0008C93A4C0915011969C9311979F5F69F0E4
:1003E00080916A00FB01E80FF11D27A38F5F8093C6
:1003F0006A00FB01E80FF11D17A211968C9111976D
:10040000882309F08DC051968C915197835082308A
:1004100020F486E050968C93509751968C9151978A
:10042000813021F488E050968C93509780916A0037
:1004300011968C9373C012962C931297283010F05B
:1004400085E046C050961C926BC012968C91129714
:10045000815012968C9312978F5F79F090916A0079
:10046000FB01E90FF11D8389821721F49F5F9093AF
:100470006A0003C050961C92509712968C91129766
:10048000882309F04DC050968C915097882309F429
:1004900047C087E050968C93509780916A001296DF
:1004A0008C933CC0FB0190E08085821729F416965E
:1004B0009C93169787E00CC050961C9250979F5FB4
:1004C0003196983089F72CC014962C93149789E0B4
:1004D00050968C9325C014968C9114978150149645
:1004E0008C9314978F5F69F080916A00FB01E80F8D
:1004F000F11D23AF8F5F80936A00FB01E80FF11DB0
:1005000013AE14968C911497882351F48AE0509678
:100510008C93509780916A0014968C9310926A0085
:10052000DF91CF910895EF92FF920F931F93CF9396
:10053000DF93EC012C81213009F027C28BAD82358D
:1005400009F439C1833538F4843409F44EC0863453
:1005500009F0DFC2D5C08D3639F0833709F4C3C145
:10056000843509F0D6C27CC08989833009F0D1C2B4
:100570009E81FE01E90FF11D80858F3F09F0C9C200
:100580008B81882309F4C5C28DE28B8F9F5C9C8F81
:100590001D8EC29A80EF9BE60197F1F78DB79EB74B
:1005A00007970FB6F8949EBF0FBE8DBFEDB7FEB78D
:1005B0003196ADB7BEB711962C9388EB90E092833D
:1005C00081838A89838314828AE090E0968385837D
:1005D000C3D6EDB7FEB737960FB6F894FEBF0FBE81
:1005E000EDBFCE01439667D594C28989833009F067
:1005F00090C2C29A88EF95E30197F1F700D000D03E
:100600000F92EDB7FEB73196ADB7BEB711962C93EA
:1006100082EB90E0928381838A89838314829CD6C3
:100620008E8190E0FE01E80FF91F2FEF20870F90D9
:100630000F900F900F900F9006966FEF92DBFE01D8
:1006400090E080858F3F49F49F5F31969830C9F7DD
:10065000188281E090E060E084DB188A198A5AC22F
:100660008989833009F055C29E81292F30E0FE012F
:10067000E20FF31F80858F3F09F44BC2F901E83088
:10068000F10590F4E35EFF4F0994959A0DC0969A98
:100690000BC0C09A09C0C19A07C0949A05C0979A26
:1006A00003C0939A01C0929A41E050E0FA0102C05F
:1006B000EE0FFF1F2A95E2F78F818E2B8F8380EF3D
:1006C0009BE60197F1F7C29A8DB79EB709970FB6CF
:1006D000F8949EBF0FBE8DBFEDB7FEB7319681E097
:1006E000ADB7BEB711968C9388EA90E09283818370
:1006F0008A8983831482568345835087478350C0F9
:100700008989833009F005C29E81292F30E0FE01DE
:10071000E20FF31F80858F3F09F4FBC1F901E83038
:10072000F10590F4EB5DFF4F099495980DC09698F4
:100730000BC0C09809C0C19807C0949805C097988D
:1007400003C0939801C0929841E050E0CA0102C0F2
:10075000880F991F2A95E2F780952F8128232F83F0
:1007600080EF9BE60197F1F7C29A8DB79EB7099784
:100770000FB6F8949EBF0FBE8DBFEDB7FEB7319692
:1007800081E0ADB7BEB711968C938EE990E092836D
:1007900081838A89838314825683458310861782D6
:1007A000DBD5188AEDB7FEB739960FB6F894FEBFC1
:1007B0000FBEEDBFAFC18989833009F0AAC19E8108
:1007C000492F50E0FE01E40FF51F80858F3F09F4AB
:1007D000A0C1FA01E830F10508F054C0E35DFF4F15
:1007E000099482B390E2892782BB2F81959B40C0F8
:1007F00036C082B390E4892782BB2F81969B38C094
:100800002EC088B391E0892788BB2F81C09B30C060
:1008100026C088B392E0892788BB2F81C19B28C05E
:100820001EC082B390E1892782BB2F81949B20C098
:1008300016C082B3805882BB2F81979B19C00FC00E
:1008400082B398E0892782BB2F81939B11C007C098
:1008500082B394E0892782BB2F81929B09C081E0FB
:1008600090E002C0880F991F4A95E2F7282B09C033
:1008700081E090E002C0880F991F4A95E2F78095C9
:1008800028232F83C29A8F8190E00E8002C0959515
:1008900087950A94E2F780FF13C08DB79EB709973A
:1008A0000FB6F8949EBF0FBE8DBFEDB7FEB7319661
:1008B00081E0ADB7BEB711968C9384E990E033C068
:1008C0008DB79EB709970FB6F8949EBF0FBE8DBF28
:1008D000EDB7FEB7319681E0ADB7BEB711968C93F8
:1008E0008AE890E03DC0C29A80EF9BE60197F1F75D
:1008F0008F8190E00E8002C0959587950A94E2F76B
:1009000080FF1DC08DB79EB709970FB6F8949EBFA4
:100910000FBE8DBFEDB7FEB73196ADB7BEB711961E
:100920002C9380E890E0928381838A898383148268
:1009300081E090E096838583908787831CC08DB784
:100940009EB709970FB6F8949EBF0FBE8DBFEDB747
:10095000FEB73196ADB7BEB711962C9386E790E0FF
:10096000928381838A898383148281E090E09683D5
:10097000858310861782F0D4EDB7FEB739960FB68F
:10098000F894FEBF0FBEEDBFC4C0243008F4C1C050
:100990008BAD893409F07BC08CAD803509F0B9C0CE
:1009A0008DAD8D3309F0B5C08989813009F0B1C0B2
:1009B000822F8350813041F48E81FE01E80FF11DBA
:1009C0008EAD8053808723C0823041F48E81FE013A
:1009D000E80FF11D2FAD20518EAD13C08330B9F457
:1009E0008E81FE01E80FF11DC05CDF4F2881C054ED
:1009F000D040205D8EAD34E6839FC0011124280FC6
:100A00008FAD3AE0839FC0011124280F20878E818B
:100A1000FE01E80FF11D80858F3F09F47BC08881BE
:100A20008823C1F481E090E061E09BD985E090E00B
:100A3000698197D981E0888310E009C0812F90E017
:100A4000FE01E80FF91F889667A18BD91F5F898186
:100A50008117A0F78E8190E0FE01E80FF91F06963E
:100A600060857FD9188A198AC29A88EF95E3019721
:100A7000F1F700D000D00F92EDB7FEB7319681E0CC
:100A8000ADB7BEB711968C9380E790E036C08D3439
:100A900009F03FC08CAD8134E1F58DAD8334C9F5EB
:100AA0008EAD8D33B1F58989813099F5C29A2C309C
:100AB00089F47E0104E110E0F70167AD638BC801A2
:100AC00050D90894E11CF11C0F5F1F4F0C31110528
:100AD00099F701C0188A198A80EF9BE60197F1F710
:100AE00000D000D00F92EDB7FEB7319681E0ADB7E0
:100AF000BEB711968C938AE690E0928381838A89AF
:100B00008383148229D40F900F900F900F900F9031
:100B100001C0188ADF91CF911F910F91FF90EF9044
:100B20000895FF920F931F93CF93DF938C01FC01E5
:100B3000108281E090E060E014D985E090E0F80157
:100B400061810FD9C6E0D0E0FF24FA94F801F08665
:100B5000CE016FEF06D90F5F1F4F2196CE30D10522
:100B6000A9F7DF91CF911F910F91FF900895CF9238
:100B7000DF92EF92FF920F931F93CF93DF937C014D
:100B800080E090E0E6D8813029F180E090E061E0FB
:100B9000E8D881E090E060E0E4D882E090E060E0B6
:100BA000E0D883E090E060E0DCD884E090E060E0B2
:100BB000D8D885E090E060E0D4D8C4E1D0E0FE0170
:100BC000E45BFF4FCE016081CCD82196CC31D105BA
:100BD000B1F754C081E090E0BCD8F701808382E097
:100BE00090E0B7D8F701858383E090E0B2D8F701B1
:100BF000878367018701C4E1D0E0CE01AAD8F8015C
:100C0000838B21960F5F1F4FCC31D105B1F78CE15B
:100C100090E09FD8F701838FC6E0D0E0CE0199D84D
:100C2000F601808721960894C11CD11CCE30D105D5
:100C3000A9F7F70180818823A1F085E090E089D8A9
:100C4000D82E8701095D1F4FC8E2D0E006C0CE0153
:100C500080D8F80181938F0121969E0128522D158D
:100C6000B0F384E090E075D8882329F083E090E029
:100C700070D8F7018783F701108A118ADF91CF912D
:100C80001F910F91FF90EF90DF90CF90089580918A
:100C90006C0090916D00019690936D0080936C00B4
:100CA00080916E00882349F08091690190916A01DA
:100CB000019690936A0180936901809169019091F6
:100CC0006A01893C910548F081E080936F001092A1
:100CD0006E0010926A011092690185ED82BF08953D
:100CE0008CB16AE171E048E650E0C0DA80912A01F7
:100CF0008A3021F081E080936E0002C010926E0075
:100D000010926A011092690108952F923F924F92BA
:100D10005F926F927F928F929F92AF92BF92CF928B
:100D2000DF92EF92FF920F931F93CF93DF93109276
:100D3000830010928200109285001092840010921D
:100D40008700109286008AE191E011DFECD995D7F7
:100D500060E875E280E090E0ACD680E796E0A4D64B
:100D600086E79DE09DD1A8D380E067E476E005D4D6
:100D700085ED82BFC29A80EF9BE6FC013197F1F7C7
:100D80000197F1F7C29811E002E06AE5262E312CB6
:100D900058E5652E712C46E5442E512C34E5832E02
:100DA000912C22E5A22EB12C90E5C92ED12CC4E7BE
:100DB000D0E086E9E82E85E1F82E809182009091BE
:100DC0008300009721F08734910509F07BC0B59925
:100DD0006CC080917700813091F1813030F08733A1
:100DE000F9F08A3309F067C041C080911D01882362
:100DF00021F0C49810921D0103C0C49A10931D01E4
:100E00001093770080916C0090916D009093740026
:100E10008093730047E350E0509383004093820037
:100E200080916C0090916D0020917300309174005E
:100E3000821B930B855F914008F448C03CC08091B1
:100E400075009091760001969093760080937500DE
:100E500080916C0090916D0090937200809371006E
:100E60008AE390E0909383008093820080916C00ED
:100E700090916D002091710030917200821B930B54
:100E8000029720F1809175009091760081519742F0
:100E900090F08AE191E045DE1092760010927500A4
:100EA000109370000093770006C0109277001092A4
:100EB00076001092750047E450E050938300409311
:100EC000820004C0109283001092820080918400FE
:100ED000909185008635910509F469C087359105A3
:100EE00090F48235910589F18335910538F40097A6
:100EF000B1F08035910509F0A1C015C08435910588
:100F000009F09CC03BC08A35910509F480C08D353D
:100F1000910529F08835910509F090C060C0D09204
:100F20008500C092840080917000813009F08AC0F1
:100F3000C49A80916C0090916D0090938100809391
:100F40008000B0928500A092840020916C003091C6
:100F50006D008091800090918100A901481B590B80
:100F6000CA018152934008F46DC0C49830937F0049
:100F700020937E00909285008092840020916C00E6
:100F800030916D0080917E0090917F00A901481BF7
:100F9000590BCA018152934008F454C0C49A30934B
:100FA0007D0020937C005092850040928400209127
:100FB0006C0030916D0080917C0090917D00A901C2
:100FC000481B590BCA0181529340E0F1C4983093F9
:100FD0007B0020937A0070928500609284002091BB
:100FE0006C0030916D0080917A0090917B00A90196
:100FF000481B590BCA018152934020F1C49A309387
:1010000079002093780030928500209284008091AE
:101010006C0090916D002091780030917900821BD6
:10102000930B8152934070F0C498109270004DE57C
:1010300050E0509385004093840004C010928500D6
:10104000109284008091860090918700009719F09B
:101050008437910501F580912A018A3039F48AE1BB
:1010600091E061DAC7010197F1F7C29880916F00B2
:10107000882361F010922A0110922B0110926E00C9
:1010800010926F0010926A0110926901D09387004C
:10109000C093860092CE10928700109286008DCE6B
:1010A00090938900809388000895E0918800F091E2
:1010B000890009950895CF93DF93EC01009739F4E7
:1010C00009C02196E0918800F091890009958881F6
:1010D0008823B9F7DF91CF910895EF92FF920F9394
:1010E0001F93CF93DF938C017A01009701F120E0E9
:1010F00030E02617370738F4F80181918F012F5F10
:101100003F4F8823B1F7C0E0D0E00EC0F8018081E6
:10111000E0918800F0918900882319F00F5F1F4F3C
:1011200001C080E209952196CE15DF0578F3DF91A5
:10113000CF911F910F91FF90EF900895CF93DF9380
:10114000EC01009731F40AC0E0918800F091890029
:101150000995FE01219684918823B1F7DF91CF9103
:101160000895E0918800F09189008DE00995E09163
:101170008800F09189008AE009950895E82FF0E051
:10118000EF70F070E054FF4FE491209188003091AF
:1011900089008E2FF901099508951F93182F8295C4
:1011A0008F70ECDF812FEADF1F9108951F93182FB6
:1011B000892FF3DF812FF1DF1F910895EF92FF92C6
:1011C0000F931F937B018C01C801AA27BB27EEDF79
:1011D000C701ECDF1F910F91FF90EF9008952F92C0
:1011E0003F924F925F926F927F928F929F92AF92B7
:1011F000BF92CF92DF92EF92FF920F931F93DF93F4
:10120000CF93CDB7DEB7A3970FB6F894DEBF0FBE6E
:10121000CDBF6AA3242E2BA337014801442351F0EC
:1012200017FF08C0EE24FF248701E618F708080915
:10123000190902C0840173012AA1215090E02110F4
:1012400091E0291B29A318A2A82EBB24CC24DD24BD
:10125000C801B701A60195015AD5FB01E054FF4F23
:1012600064916F8FC801B701A601950150D5C901DE
:10127000DA017C018D019EE1492E512C4C0E5D1E40
:1012800039A021C0E114F10401051105A9F0C8013C
:10129000B701A60195013BD5FB01E054FF4F6491D6
:1012A000D2016C93C801B701A601950130D5C901DF
:1012B000DA017C018D0103C02BA1F20120833A9455
:1012C0000894410851083320E9F6CE014F968C016D
:1012D000A9A10A1B1109222019F197FE05C08DE270
:1012E000F80182938F011CC0C80101976114710439
:1012F0008104910429F08C018BE2D8018C9310C0F9
:101300008C0180E2F80180830BC0E0918800F091AD
:101310008900D8018D918D010995BAA1B150BAA368
:10132000EAA1EE2391F7A3960FB6F894DEBF0FBEA5
:10133000CDBFCF91DF911F910F91FF90EF90DF9084
:10134000CF90BF90AF909F908F907F906F905F9065
:101350004F903F902F9008957F928F929F92AF92DF
:10136000BF92CF92DF92EF92FF920F931F93DF9382
:10137000CF93CDB7DEB77888C988DA8853E1E52EF8
:10138000F12CEC0EFD1E17C0882381F480E090E064
:10139000CF91DF911F910F91FF90EF90DF90CF9051
:1013A000BF90AF909F908F907F900895E0918800BC
:1013B000F0918900099596012F5F3F4F772021F02A
:1013C000F6016901849103C0F601808169018532CB
:1013D000D9F62F5F3F4F772021F0F6016901849104
:1013E00003C0F60180816901843629F0883781F0D5
:1013F0008336E1F606C000E117E24AE0A42EB12CE4
:101400000CC0F701808122E030E0E20EF31ECECF67
:1014100000E110E030E1A32EB12C22E0822E912CCD
:101420008E0C9F1CF701E080F1808436C1F4F7FE3A
:1014300013C0F094E194F108F394E0918800F091E6
:1014400089008DE2099508C0C8016AE070E04BD4BC
:101450008B016230710518F0E016F106A8F3C701A0
:10146000B80141D4FB01E054FF4FE4912091880082
:10147000309189008E2FF9010995C701B80133D445
:101480007C01C801B5012FD48B016115710539F7B5
:10149000740191CF089583B7887F826083BF12BEA5
:1014A00089B7816089BF10926B0110926C01109214
:1014B0006D0110926E01089580E090E0FC01EE0F46
:1014C000FF1FE657FF4F118210820196873091056A
:1014D000A9F7E1DF789408958EB5887F83608EBD8B
:1014E0001DBC1CBC89B7846089BF089585B5887F01
:1014F000846085BD14BC89B7806489BF1092730174
:10150000109274011092750110927601089593B7AC
:10151000987F982B93BF08959EB5987F982B9EBD7A
:10152000089595B5987F982B95BD089583B7E82FBA
:10153000F0E0E770F070EE0FFF1FEF52FF4F2591C4
:101540003491C90108958EB5E82FF0E0E770F0708E
:10155000EE0FFF1FEF52FF4F25913491C9010895FF
:1015600085B5E82FF0E0E770F070EE0FFF1FE35253
:10157000FF4F25913491C9010895873040F4E82F39
:10158000F0E0EE0FFF1FE657FF4F71836083089571
:10159000873040F4E82FF0E0EE0FFF1FE657FF4FD3
:1015A000118210820895EF92FF920F931F93CF93B1
:1015B000DF93EC0112B710926F011092700110923C
:1015C00071011092720183B7E82FF0E0E770F070BC
:1015D000EE0FFF1FEF52FF4F2591349140E050E096
:1015E00064E677EA88EA90E092D3B901CA01693BE0
:1015F0002DE8720726E0820720E0920790F437E298
:10160000C131D30770F49E0140E050E04DD328EE85
:1016100033E040E050E07BD3C901DA01BC01CD01E9
:101620001FC028EE33E040E050E071D3CA01B90199
:101630009E0140E050E038D313C080916F0190913B
:101640007001A0917101B091720185B78F7885BF4B
:1016500085B7806885BF889585B78F7785BF08C0B7
:101660009B01AC01210F311D411D511D79018A01E2
:1016700020916F0130917001409171015091720180
:1016800082B790E0A0E0B0E0542F432F322F222702
:10169000822B932BA42BB52B8E159F05A007B1078A
:1016A00060F2DF91CF911F910F91FF90EF9008951D
:1016B00010926B0110926C0110926D0110926E01EC
:1016C000089520916B0130916C0140916D01509112
:1016D0006E01B901CA01089510927301109274014C
:1016E0001092750110927601089520917301309146
:1016F00074014091750150917601B901CA010895B4
:10170000893031F48FB582608FBD8FB58E7F0AC06E
:101710008A3019F48FB5826002C08FB58D7F8FBD7E
:101720008FB581608FBD1BBC1ABC19BC18BC089555
:101730002FB52E7F2FBD2FB522602FBD2EB528606F
:101740002EBD2EB520612EBD97BD86BD1BBC1ABC1B
:1017500019BC18BC08958FB58D7F8FBD8FB58E7F56
:101760008FBD8FB58F778FBD8FB58F7B8FBD8FB5B9
:101770008F7D8FBD8FB58F7E8FBD08958FB58068AB
:101780008FBD8FB58F7B8FBD08958FB580628FBD64
:101790008FB58F7E8FBD08958FB58F778FBD8FB535
:1017A0008F7B8FBD08958FB58F7D8FBD8FB58F7E59
:1017B0008FBD08959BBD8ABD089599BD88BD0895CC
:1017C0001F920F920FB60F9211242F933F934F93B6
:1017D0005F936F937F938F939F93AF93BF93EF9399
:1017E000FF9380916B0190916C01A0916D01B0917C
:1017F0006E010196A11DB11D80936B0190936C0148
:10180000A0936D01B0936E0180916F019091700172
:10181000A0917101B09172010196A11DB11D80933B
:101820006F0190937001A0937101B0937201809148
:101830008A0090918B00892B29F0E0918A00F09129
:101840008B000995FF91EF91BF91AF919F918F917F
:101850007F916F915F914F913F912F910F900FBEAC
:101860000F901F9018951F920F920FB60F92112490
:101870002F933F934F935F936F937F938F939F9398
:10188000AF93BF93EF93FF9380918C0090918D0065
:10189000892B29F0E0918C00F0918D000995FF9142
:1018A000EF91BF91AF919F918F917F916F915F91D8
:1018B0004F913F912F910F900FBE0F901F90189551
:1018C0001F920F920FB60F9211242F933F934F93B5
:1018D0005F936F937F938F939F93AF93BF93EF9398
:1018E000FF938091730190917401A0917501B09163
:1018F00076010196A11DB11D80937301909374012F
:10190000A0937501B0937601809194009091950019
:10191000892B29F0E0919400F09195000995FF91B1
:10192000EF91BF91AF919F918F917F916F915F9157
:101930004F913F912F910F900FBE0F901F901895D0
:101940001F920F920FB60F9211242F933F934F9334
:101950005F936F937F938F939F93AF93BF93EF9317
:10196000FF9380918E0090918F00892B29F0E09158
:101970008E00F0918F000995FF91EF91BF91AF918B
:101980009F918F917F916F915F914F913F912F9197
:101990000F900FBE0F901F9018951F920F920FB6C9
:1019A0000F9211242F933F934F935F936F937F93E5
:1019B0008F939F93AF93BF93EF93FF93809190008A
:1019C00090919100892B29F0E0919000F091910085
:1019D0000995FF91EF91BF91AF919F918F917F9169
:1019E0006F915F914F913F912F910F900FBE0F908C
:1019F0001F9018951F920F920FB60F9211242F93DC
:101A00003F934F935F936F937F938F939F93AF9386
:101A1000BF93EF93FF938091920090919300892B55
:101A200029F0E0919200F09193000995FF91EF91D8
:101A3000BF91AF919F918F917F916F915F914F91E6
:101A40003F912F910F900FBE0F901F9018951F92EE
:101A50000F920FB60F9211242F933F934F935F93E2
:101A60006F937F938F939F93AF93BF93EF93FF9366
:101A70008091960090919700892B29F0E091960033
:101A8000F09197000995FF91EF91BF91AF919F91D0
:101A90008F917F916F915F914F913F912F910F9017
:101AA0000FBE0F901F901895909319018093180105
:101AB0000895F3E0660F771F881F991FFA95D1F7F5
:101AC0009B01AC01220F331F441F551F6C597845F1
:101AD00087459F4F1CD12150304029B930BD089512
:101AE00088E791E0089581E891E00895982F80912A
:101AF00077018823E1F39CB9109277010895109241
:101B00007D0110927C01089580917C0190917D016E
:101B1000892B11F080E008958FEF08951F920F92A6
:101B20000FB60F9211242F933F934F935F936F93B0
:101B30007F938F939F93AF93BF93EF93FF93E09126
:101B40001801F091190180E00995FF91EF91BF9183
:101B5000AF919F918F917F916F915F914F913F9145
:101B60002F910F900FBE0F901F9018951F920F92FC
:101B70000FB60F9211242F933F934F935F936F9360
:101B80007F938F939F93AF93BF93EF93FF93809136
:101B90008001882369F08091850190918601892BCD
:101BA00029F081E891E0DFD28CB905C01092800164
:101BB0008FEF80937701FF91EF91BF91AF919F914C
:101BC0008F917F916F915F914F913F912F910F90E6
:101BD0000FBE0F901F9018958FEF8093800181E8C2
:101BE00091E0C1D2982F809177018823E1F39CB9CD
:101BF000109277010895CF93DF93EC0180917A01E1
:101C000090917B01892B61F080917C0190917D0105
:101C1000892B31F088E791E0A6D288838FEF01C04D
:101C200080E0DF91CF910895DF93CF930F92CDB7EE
:101C3000DEB7CE010196DFDF882319F42FEF3FEFE7
:101C400003C08981282F30E0C9010F90CF91DF9127
:101C50000895682F81E891E0D9D2089588E791E04E
:101C600068E970E040E450E074D281E891E068ED0A
:101C700070E040E450E06DD20895F0DF1092190159
:101C80001092180188ED8AB960E875E280E090E072
:101C900010DF8FEF809377011092800110928A01FC
:101CA0001092890178940895629FD001739FF0018A
:101CB000829FE00DF11D649FE00DF11D929FF00DDC
:101CC000839FF00D749FF00D659FF00D9927729F13
:101CD000B00DE11DF91F639FB00DE11DF91FBD019E
:101CE000CF0111240895AA1BBB1B51E107C0AA1FF5
:101CF000BB1FA617B70710F0A61BB70B881F991FAD
:101D00005A95A9F780959095BC01CD010895A1E25F
:101D10001A2EAA1BBB1BFD010DC0AA1FBB1FEE1F65
:101D2000FF1FA217B307E407F50720F0A21BB30BB0
:101D3000E40BF50B661F771F881F991F1A9469F72C
:101D400060957095809590959B01AC01BD01CF0188
:101D50000895E199FECF9FBB8EBBE09A99278DB382
:101D60000895262FE199FECF9FBB8EBB2DBB0FB6EA
:101D7000F894E29AE19A0FBE01960895F894FFCF85
:0A1D80006D4773764E6F30315653F5
:00000001FF
