:100000002CC046C045C044C043C042C041C040C0EF
:100010003FC08AC83DC0BEC83BC03AC039C038C026
:1000200037C036C035C066C067C068C069C06AC026
:100030006BC06CC06DC076C077C078C079C07AC024
:100040007BC07CC07DC0F4C207C332C33DC346C37E
:10005000B0C30DC42FC4A3C334C411241FBECFE545
:10006000D4E0DEBFCDBF11E0A0E6B0E0ECEAFBE1FA
:1000700002C005900D92AA34B107D9F712E0AAE4A4
:10008000B1E001C01D92AF3DB107E1F7B9D88CCD09
:10009000B7CFBD98C59A8D9A8E9AB89AB99A8C9A0C
:1000A0008F9A8B9A8A9ABA9ABC9AC498959896987D
:1000B000C098C19894989798939892980895FC0145
:1000C000EB57FF4F80E010828F5F7D968830D9F725
:1000D000089581E090E0089581E090E0089581E046
:1000E00090E00895E82FF0E0E830F10590F4ED5E3F
:1000F000FF4F0994959A0895969A0895C09A089585
:10010000C19A0895949A0895979A0895939A089594
:10011000929A0895E82FF0E0E830F10590F4E55E5A
:10012000FF4F09949598089596980895C09808955A
:10013000C19808959498089597980895939808956C
:10014000929808958F929F92AF92BF92CF92DF9232
:10015000EF92FF920F931F93CF93DF93EC014E81A9
:100160004F3F09F4D4C18C85843509F054C0FE0199
:100170003C96DF010D900020E9F77D010894E1082D
:10018000F108EE1AFF0AB1E0EB16F10409F0BFC165
:100190009B858A85981709F49FC0842FA3DFC29A94
:1001A00008EE11EAC8010197F1F72DB73EB72A50C2
:1001B00030400FB6F8943EBF0FBE2DBFEDB7FEB76F
:1001C000319683E890E0ADB7BEB712969C938E93BC
:1001D000119780E690E0938382838A8584831582D9
:1001E000F782E682F186E0860BDAC8010197F1F723
:1001F000C2988E8190E02DE130E0829FF001839FD4
:10020000F00D929FF00D1124EC0FFD1FEB57FF4FE7
:1002100081E0808355C0863409F088C0FE013C9699
:10022000DF010D900020E9F77D010894E108F10855
:10023000EE1AFF0AB1E0EB16F10409F068C19B85E4
:100240008A85981709F448C0842F64DFC29A08EEA3
:1002500011EAC8010197F1F72DB73EB72A50304097
:100260000FB6F8943EBF0FBE2DBFEDB7FEB7319667
:1002700083E890E0ADB7BEB712969C938E9311972A
:1002800080E690E0938382838A8584831582F78257
:10029000E68211861086B4D9C8010197F1F7C29899
:1002A0008E8190E02DE130E0829FF001839FF00D80
:1002B000929FF00D1124EC0FFD1FEB57FF4F1082A2
:1002C0008A858B872DB73EB7265F3F4F0FB6F894D0
:1002D0003EBF0FBE2DBF01C0C29A08EE11EAC80191
:1002E0000197F1F74DB75EB74A5050400FB6F894FA
:1002F0005EBF0FBE4DBFEDB7FEB7319683E890E00D
:10030000ADB7BEB712969C938E93119780E690E09E
:10031000938382838A858483158281E090E097832A
:1003200086838E8190E02DE130E0D2C0823509F0E5
:10033000EEC0FE013C96DF010D900020E9F77D0143
:100340000894E108F108EE1AFF0AB1E0EB16F10497
:1003500009F0DDC05B858A85242F30E0581709F449
:1003600094C05DE1C52ED12C2C9DF0012D9DF00D8A
:100370003C9DF00D1124EC0FFD1FEB57FF4F8081CA
:1003800023E8A22E20E0B22E90E6892E90E0992E4E
:100390008823C1F1842FBEDEC29A08EE11EAC8019B
:1003A0000197F1F72DB73EB72A5030400FB6F894B9
:1003B0003EBF0FBE2DBFEDB7FEB73196ADB7BEB78E
:1003C0001296BC92AE921197938282828A85848320
:1003D0001582F782E6821186108612D9C80101972C
:1003E000F1F7C2988E8190E09C012C9DC0012D9D5B
:1003F000900D3C9D900D1124C80FD91FCB57DF4F96
:10040000188237C0842F6EDEC29A08EE11EAC80146
:100410000197F1F78DB79EB70A970FB6F8949EBF74
:100420000FBE8DBFEDB7FEB73196ADB7BEB7129612
:10043000BC92AE921197938282828A8584831582C0
:10044000F782E682F186E086DBD8C8010197F1F7F2
:10045000C2988E8190E09C012C9DC0012D9D900D35
:100460003C9D900D1124C80FD91FCB57DF4F81E061
:10047000888321E030E04DB75EB7465F5F4F0FB62F
:10048000F8945EBF0FBE4DBF44C0C29A08EE11EA99
:10049000C8010197F1F78DB79EB70A970FB6F89488
:1004A0009EBF0FBE8DBFEDB7FEB7319683E890E0DB
:1004B000ADB7BEB712969C938E93119780E690E0ED
:1004C0009383828354831582F782E6828DE190E0E4
:1004D000AC01249FC001259F900D349F900D1124E5
:1004E000C80FD91FCB57DF4F88818087118688D8E6
:1004F000C8010197F1F7C29821E030E08DB79EB7AF
:100500000A960FB6F8949EBF0FBE8DBF02C020E0C2
:1005100030E0C901DF91CF911F910F91FF90EF90D3
:10052000DF90CF90BF90AF909F908F9008950F93E2
:100530001F93CF93DF93DC0116968C91169790E072
:100540002DE130E0829FF001839FF00D929FF00D2E
:100550001124EA0FFB1FEB57FF4F808123E830E0A7
:1005600040E650E0882311F1C29A08EE11EAC80172
:100570000197F1F78DB79EB70A970FB6F8949EBF13
:100580000FBE8DBFEDB7FEB73196CDB7DEB73A835C
:100590002983538342831A968C918483158281E048
:1005A00090E097838683918780871FC0C29A08EE68
:1005B00011EAC8010197F1F7CDB7DEB72A970FB658
:1005C000F894DEBF0FBECDBFEDB7FEB731963A83CC
:1005D0002983538342831A968C918483158281E008
:1005E00090E097838683118610860AD8C801019708
:1005F000F1F7C2988DB79EB70A960FB6F8949EBFD2
:100600000FBE8DBFDF91CF911F910F910895CF93B2
:10061000DF93282FDB01EA0119968C911997E82FB7
:10062000F0E0EA30F10508F071C1ED5DFF4F09948B
:1006300090915301C90FD11D8881281721F49F5F24
:100640009093530102C01092530180915301823064
:1006500009F05CC181E03FC02D3451F02E3418F414
:100660002934F9F412C02F3449F02136D1F413C0E3
:1006700082E019968C93199781E005C082E0199663
:100680008C93199783E08C9310C082E019968C9319
:10069000199784E0F8CF82E019968C93199786E039
:1006A000F2CF19961C9219971C92109253012EC1E9
:1006B0008C91863011F41C9279C083E019968C934A
:1006C00019971A962C9322C112962C9312972730C1
:1006D00008F46CC084E019968C9316C111968C9125
:1006E000119712969C911297882371F1915012964E
:1006F0009C9312979F5F89F090915201FB01E90F43
:10070000F11DE75AFE4F8081821721F49F5F90937D
:10071000520103C019961C92199712968C91129748
:10072000882309F0F3C0A85ABE4F909152018C91D2
:10073000A855B140981709F095C08C91813011F4FB
:1007400088E0C9CF86E0C7CF915012969C9312974C
:100750009F5F89F080915201FB01E80FF11DE75A7C
:10076000FE4F20838F5F80935201FB01E80FF11D44
:10077000E75AFE4F108212968C911297882309F047
:10078000C5C08C91813011F488E001C086E01996D3
:100790008C9319978091520112968C93B5C0139641
:1007A0002C931397273010F085E088C019961C927F
:1007B000ADC013968C911397815013968C93139719
:1007C0008F5FD1F090915201CAE4D1E0E92FF0E0BF
:1007D000EF58FF4FE60FF71F30E08081821709F4D2
:1007E00031E08881830F89937D9681E0C235D807F7
:1007F00099F79F5F9093520113968C9113978823DA
:1008000009F084C08FEF16968C931697ED01C957A7
:10081000DF4F20E030E0F901E65BFE4F90818881F8
:10082000981719F416962C9316972F5F3F4F6D96D5
:100830002830310581F716968C9116978F3F91F0ED
:1008400087E019968C9319978091520113968C9397
:100850001092520188E0EAE4F1E0DF011D928A95EE
:10086000E9F754C019961C9219971C924FC08FEF4C
:1008700016968C9316973C9130935201FB01E059E8
:10088000FF4F90E08081821761F48689381749F420
:1008900016969C93169787E019968C9319973C931C
:1008A00033C019961C9219971C929F5F7D969830C1
:1008B00049F72CC014962C93149789E019968C93C1
:1008C00025C014968C911497815014968C9314978C
:1008D0008F5F69F080915201FB01E80FF11D2487C1
:1008E0008F5F80935201FB01E80FF11D148614966F
:1008F0008C911497882351F48AE019968C93199758
:100900008091520114968C9310925201DF91CF91F5
:100910000895DF92EF92FF920F931F93CF93DF938F
:100920007C01FC01118281E090E060E059D885E013
:1009300090E060E055D8870100591F4FC4E1D0E036
:10094000DD24DA94F801D082CE016FEF49D8035E3E
:100950001F4F2196CC31D105A9F7F70111861082DE
:10096000DF91CF911F910F91FF90EF90DF9008954D
:100970000F931F93CF93DF93EC018C01045F1F4F04
:10098000C8016AE670E044E050E02CD6009709F018
:10099000A6C0F80101900020E9F73197E01BF10BA8
:1009A0003C9708F49CC08E812DE1829FC0011124E8
:1009B0008F589F4F8C0F9D1FFC0184E1DF011D921A
:1009C0008A95E9F78E81829FC00111248F589F4F2D
:1009D000BE01605F7F4F8C0F9D1FFDD58E8190E023
:1009E0000DE110E0809FF001819FF00D909FF00DD0
:1009F0001124EF58FF4FCE018E0F9F1FE157F0409B
:100A0000DC010D900020E9F71197A81BB90BEC0F42
:100A1000FD1FE957FF4FA0838E8190E0809FF0017A
:100A2000819FF00D909FF00D1124EC0FFD1FE957F1
:100A3000FF4F4E966081D4D78E8190E0809FD00189
:100A4000819FB00D909FB00D112424E130E0829F72
:100A5000B001839F700D929F700D11246C597F4FD0
:100A6000FE01EA0FFB1FE957FF4F4081AF58BF4F10
:100A7000CE018A0F9B1F50E0AAD7C29A08EE11EA56
:100A8000C8010197F1F78DB79EB708970FB6F89494
:100A90009EBF0FBE8DBFEDB7FEB7319681E990E0E6
:100AA000ADB7BEB712969C938E93119793838283B2
:100AB0008FE690E0958384838A8586831782A0D50C
:100AC000C8010197F1F7C29821E030E08DB79EB7D9
:100AD00008960FB6F8949EBF0FBE8DBF02C020E0EF
:100AE00030E0C901DF91CF911F910F9108950F93CD
:100AF0001F93CF93DF93EC018C858D3609F083C073
:100B0000DE011C96FD0101900020E9F73297EA17FB
:100B1000FB0709F078C08E8190E02DE130E0829FE4
:100B2000A001839F500D929F500D1124FE01E40FF0
:100B3000F51FE059FF4F80818F3F39F58885882365
:100B400009F461C0C29A08EE11EAC8010197F1F7F1
:100B50009A012F583F4F2C0F3D1FD9010D900020B7
:100B6000E9F71197A21BB30B8DB79EB70A970FB683
:100B7000F8949EBF0FBE8DBF4DB75EB74F5F5F4FFE
:100B800081E990E0EDB7FEB720C0C29A08EE11EA05
:100B9000C8010197F1F79A012F583F4F2C0F3D1FC5
:100BA000D9010D900020E9F71197A21BB30BEDB707
:100BB000FEB73A970FB6F894FEBF0FBEEDBF4DB724
:100BC0005EB74F5F5F4F81E990E09283818385E755
:100BD00090E0FA01938382838A8584831582B783A8
:100BE000A683318720870CD5C8010197F1F7C298F9
:100BF00021E030E08DB79EB70A960FB6F8949EBFFD
:100C00000FBE8DBF02C020E030E0C901DF91CF915F
:100C10001F910F9108950F931F93CF93DF93EC01D2
:100C20009E819F3F09F470C08C85843409F06CC0AC
:100C3000DE011C96FD0101900020E9F73297EA17CA
:100C4000FB0709F061C0892F90E00DE110E0809F63
:100C5000F001819FF00D909FF00D1124EC0FFD1F0E
:100C6000E059FF4F8FEF80838E8190E044966FEFC5
:100C7000B7D68E8190E0809FF001819FF00D909F0C
:100C8000F00D1124EC0FFD1FEB57FF4F80818823DF
:100C900011F0CE0124DAC29A08EE11EAC8010197D8
:100CA000F1F700D000D000D0EDB7FEB7319681E962
:100CB00090E0ADB7BEB712969C938E9311978FE6D6
:100CC00090E0938382838A858483158299D4C801B6
:100CD0000197F1F7C298FE01E059FF4F90E02DB760
:100CE0003EB72A5F3F4F0FB6F8943EBF0FBE2DBFF1
:100CF00080818F3F19F021E030E008C09F5F7D9632
:100D00009830B1F7CE0105DE20E030E0C901DF9177
:100D1000CF911F910F910895CF92DF92EF92FF92A2
:100D20000F931F93CF93DF93EC018C01045F1F4F50
:100D3000C8016FE770E043E050E054D49C01009795
:100D400009F0A6C0D8010D900020E9F71197A01B6B
:100D5000B10BA430B10508F49BC0A730B10508F071
:100D600097C08881813009F093C08885882309F471
:100D70008FC08A2F8350813019F43F85305316C0BD
:100D8000823021F4388930518F850BC0833071F463
:100D90003989305D8F8524E6829FC0011124380F88
:100DA00088892AE0829FC0011124380F8E8190E04B
:100DB0002DE1C22ED12C8C9DF0018D9DF00D9C9DBE
:100DC000F00D1124EC0FFD1FE059FF4F308381E03F
:100DD000898389E5E82E81E0F82EEC0EFD1EF701EF
:100DE00001900020E9F73197EE19FF098E01085AAA
:100DF0001E4FD801EC9381E090E061E0F1D58E8147
:100E000090E08C9DF0018D9DF00D9C9DF00D1124C6
:100E1000EC0FFD1FE059FF4F44966081E1D585E05E
:100E200090E0F8016081DCD5D8014C91C70168E2FF
:100E300070E050E0CCD5CE014FD9C29A08EE11EA4D
:100E4000C8010197F1F700D000D000D0EDB7FEB790
:100E5000319681E990E0ADB7BEB712969C938E9320
:100E600011978FE690E0938382838A85848315822D
:100E7000C7D3C8010197F1F7C29821E030E0EDB780
:100E8000FEB736960FB6F894FEBF0FBEEDBF02C098
:100E900020E030E0C901DF91CF911F910F91FF90C9
:100EA000EF90DF90CF900895CF93DF93EC018E8188
:100EB0008F3F91F08C85833779F4DE011C96FD011C
:100EC00001900020E9F73297EA17FB0729F4CE01D9
:100ED0002EDB21E030E002C020E030E0C901DF91EC
:100EE000CF910895CF93DF93EC0101DE892B91F42C
:100EF000CE0112DF892B71F4CE013ADD892B51F43A
:100F0000CE0189DE892B31F4CE01CEDF892B11F49D
:100F1000CE0118D980E090E0DF91CF9108954F92F3
:100F20005F926F927F929F92AF92BF92CF92DF9229
:100F3000EF92FF920F931F93CF93DF935C0180E0BA
:100F400090E03DD5813009F467C080E090E061E039
:100F500047D581E090E060E043D582E090E060E03A
:100F60003FD58AE090E060E03BD584E090E060E02F
:100F700037D585E090E060E033D500E010E0CC2488
:100F8000DD2474E1472E512CC80144966FEF28D51B
:100F9000F801EF5BFE4FC801CC96608121D561EA74
:100FA000E62E60E0F62EEC0CFD1CF701019000200F
:100FB000E9F73197EE19FF09C8014E966E2F10D54B
:100FC000BB24049D3001059D700C149D700C1124F0
:100FD0000CC0CE018C0D9D1DC60DD71DCF55DF4F0A
:100FE0008C599F4F6881FCD4B394CB2DD0E0F7018E
:100FF00001900020E9F73197EE19FF09CE17DF07BE
:1010000040F30F5F1F4F84E190E0C80ED91E0830F7
:10101000110509F0B9CF78C081E090E0D0D4D501B6
:1010200011968C9382E090E0CAD4F501858350E755
:10103000E52EF12CEA0CFB1CC0E0D0E044E6642E67
:10104000712C3DE1432E512CCE01CC96B8D4D70162
:1010500056968C93CE010A96B2D4F701858BCE01B9
:101060004496ADD4D7018C93CE014E96A8D4F70107
:10107000878B9924C49D6001C59DD00CD49DD00C54
:101080001124CA0CDB1C0DC0092D10E0C801860D0F
:10109000971D95D40C0D1D1D0F581F4FD8018C9313
:1010A0009394F7018789981678F321968DE190E063
:1010B000E80EF91EA4E1B0E06A0E7B1EC830D1052F
:1010C00019F685E090E07BD4F501E85AFE4F808365
:1010D000D50111968C91882391F0FF24EF010CC06B
:1010E0000F2D10E0C80188966AD40A0D1B1D075AFF
:1010F0001E4FF8018083F3948881F81688F3D50198
:1011000019961C9219971C92DF91CF911F910F9104
:10111000FF90EF90DF90CF90BF90AF909F907F9027
:101120006F905F904F9008951F920F920FB60F929D
:1011300011248F939F9380915401909155010196B2
:10114000909355018093540180915601882349F072
:101150008091DD029091DE0201969093DE028093F1
:10116000DD028091DD029091DE02893C910548F01C
:1011700081E080935701109256011092DE02109286
:10118000DD0285ED82BF9F918F910F900FBE0F9072
:101190001F9018951F920F920FB60F9211242F9344
:1011A0003F934F935F936F937F938F939F93AF93EF
:1011B000BF93EF93FF938CB160E771E04FE950E08C
:1011C00026DA809179018A3021F081E080935601FE
:1011D00002C0109256011092DE021092DD02FF91C1
:1011E000EF91BF91AF919F918F917F916F915F919F
:1011F0004F913F912F910F900FBE0F901F90189518
:101200002F923F924F925F926F927F928F929F9216
:10121000AF92BF92CF92DF92EF92FF920F931F9304
:10122000CF93DF9310926B0110926A0110926D01BF
:1012300010926C0110926F0110926E0188E893E198
:1012400024E131E0F9013197F1F70197D9F780E70F
:1012500091E065DE1ED7B1D180E791E030D785ED12
:1012600082BF83B7846083BF89B7816089BF789468
:1012700081E08093780180EF9BE6FC013197F1F7E4
:10128000C2980197F1F768E5262E312C56E5652EB8
:10129000712C44E5442E512C32E5832E912C20E50F
:1012A000C22ED12C9EE4A92EB12C87E7E82EF12C7A
:1012B00004E111E0C6E9D5E180916A0190916B01EA
:1012C000009721F08534910509F07AC0B5996BC07B
:1012D00080915F01813079F1813030F08533E1F028
:1012E000883309F066C03EC080917801882311F0F0
:1012F000C49801C0C49A21E020935F0180915401F9
:101300009091550190935C0180935B0145E350E01F
:1013100050936B0140936A01809154019091550163
:1013200020915B0130915C01821B930B855F9140A2
:1013300008F44AC03EC080915D0190915E01019623
:1013400090935E0180935D018091540190915501CD
:1013500090935A018093590188E390E090936B0138
:1013600080936A0180915401909155012091590117
:1013700030915A01821B930B029730F180915D01ED
:1013800090915E0181569A4EA0F080E791E0C1DA1B
:1013900010925E0110925D0141E04093580152E0CD
:1013A00050935F0106C010925F0110925E0110928F
:1013B0005D0185E490E090936B0180936A0104C025
:1013C00010926B0110926A0180916C0190916D01F5
:1013D0008435910509F469C08535910590F480350F
:1013E000910589F18135910538F40097B1F08E347B
:1013F000910509F0A1C015C08235910509F09CC086
:101400003BC08835910509F480C08B35910529F0E2
:101410008635910509F090C060C0B0926D01A09230
:101420006C0180915801813009F08AC0C49A809182
:101430005401909155019093690180936801D09275
:101440006D01C0926C012091540130915501809141
:10145000680190916901A901481B590BCA01815289
:10146000934008F46DC0C4983093670120936601DF
:1014700090926D0180926C01209154013091550140
:101480008091660190916701A901481B590BCA011F
:101490008152934008F454C0C49A3093650120935C
:1014A000640150926D0140926C0120915401309181
:1014B00055018091640190916501A901481B590B68
:1014C000CA0181529340E0F1C498309363012093A4
:1014D000620170926D0160926C0120915401309113
:1014E00055018091620190916301A901481B590B3C
:1014F000CA018152934020F1C49A30936101209334
:10150000600130926D0120926C01809154019091A4
:1015100055012091600130916101821B930B815232
:10152000934070F0C498109258014BE550E05093EE
:101530006D0140936C0104C010926D0110926C011A
:1015400080916E0190916F01009719F08737910596
:1015500079F5809179018A3059F480E791E0C2DC15
:10156000CE010197F1F7C2981092790110927001A3
:10157000809157018823B9F088EE93E0F801319704
:10158000F1F70197D9F7C298109279011092700182
:101590005FEF50937B011092560110925701109209
:1015A000DE021092DD02F0926F01E0926E0184CEB5
:1015B00010926F0110926E017FCE10BC86E489B943
:1015C0008AB188698AB980B5866880BD08955D9BB7
:1015D000FECF8CB90895FB01DC0101900D92002033
:1015E000E1F70895FB01DC014150504030F08D914E
:1015F0000190801919F40020B9F7881B990B089500
:10160000A0E0B0E0E5E0FBE0A8C29E01275F3F4F0D
:101610008D819E816F817885A90103D02096E2E0BB
:10162000B8C2ABE0B0E0E6E1FBE087C23C012B01D1
:101630005A01FC0117821682838181FD03C06FEF7E
:101640007FEFB9C19AE0892E1E010894211C311C3C
:10165000F3012381F20123FD859123FF81912F0165
:10166000882309F4A5C1853239F423FD859123FF30
:1016700081912F01853221F490E0B301D4D1E8CFDC
:10168000982FFF24EE249924FFE1FF15D0F09B3220
:1016900069F09C3228F4903259F0933291F40EC0E4
:1016A0009D3249F0903369F441E024C052E0F52ABC
:1016B00084E0F82A28C098E0F92A25C0E0E1FE2A53
:1016C00022C0F7FC29C0892F80538A3070F4F6FEBF
:1016D00005C0989C902C1124980E15C0E89CE02C15
:1016E0001124E80EF0E2FF2A0EC09E3229F4F6FC27
:1016F0005FC140E4F42A07C09C3619F450E8F52A8B
:1017000002C0983649F4F20123FD959123FF91918F
:101710002F01992309F0B8CF892F8554833018F011
:101720008052833038F444E050E0A40EB51E5FE3ED
:1017300059830FC0933631F0933779F0933509F020
:1017400052C01FC0F5018081898342E050E0A40EA1
:10175000B51E610101E010E011C0F501C080D1802B
:10176000F6FC03C06FEF7FEF02C0692D70E042E02E
:1017700050E0A40EB51EC6014BD18C015FE7F522E7
:1017800013C0F501C080D180F6FC03C06FEF7FEF7E
:1017900002C0692D70E042E050E0A40EB51EC60103
:1017A0002CD18C0150E8F52AF3FE06C018C080E267
:1017B00090E0B30138D1EA948E2D90E00817190714
:1017C000B0F30DC0F601F7FC8591F7FE81916F0132
:1017D00090E0B30128D1E110EA94015010400115C6
:1017E000110581F7E2C0943611F0993661F5F7FEE4
:1017F00008C0F501208131814281538184E090E06D
:101800000AC0F501808191819C01442737FD4095F4
:10181000542F82E090E0A80EB91E9FE6F92257FFF0
:1018200009C050954095309521953F4F4F4F5F4FE0
:10183000E0E8FE2ACA01B901A1012AE030E01FD187
:10184000D82ED2183FC0953729F41F2D1F7E2AE0CD
:1018500030E01DC01F2D197F9F3661F0903720F4B6
:10186000983509F0A5C00FC0903739F0983709F0C6
:101870009FC004C028E030E00AC0106114FD14606D
:1018800020E130E004C014FD166020E132E017FFD3
:1018900008C0F501608171818281938144E050E04C
:1018A00008C0F50180819181BC0180E090E042E0B8
:1018B00050E0A40EB51EA101E2D0D82ED2188FE7B9
:1018C000F82EF122F6FE0BC05EEFF522D91438F4A3
:1018D000F4FE07C0F2FC05C08FEEF82202C01D2DF9
:1018E00001C0192DF4FE0DC0FE01ED0DF11D80812A
:1018F000803319F499EEF92208C01F5FF2FE05C08B
:1019000003C08F2D867809F01F5F0F2DF3FC13C0E5
:10191000F0FE0EC01E1510F09D2C0AC09D2C9E0CD2
:10192000911A1E2D05C080E290E0B3017CD01F5FAC
:101930001E15C8F304C01E1510F4E11A01C0EE24F0
:1019400004FF0EC080E390E0B3016DD002FF1BC026
:1019500001FD03C088E790E00EC088E590E00BC071
:10196000802F867881F001FF02C08BE201C080E207
:10197000F7FC8DE290E0B30156D005C080E390E023
:10198000B30151D09A94D914C8F3DA94F101ED0D52
:10199000F11D808190E0B30146D0DD20B1F705C094
:1019A00080E290E0B3013FD0EA94EE20C9F750CE38
:1019B000F30166817781CB012B96E2E1DAC0E199F0
:1019C000FECF9FBB8EBBE09A99278DB30895DC01B3
:1019D000CB0102C02D9105D041505040D8F7089559
:1019E000262FE199FECF9FBB8EBB2DBB0FB6F8947F
:1019F000E29AE19A0FBE01960895FC0105906150AC
:101A000070400110D8F7809590958E0F9F1F089514
:101A1000FC016150704001900110D8F780959095BD
:101A20008E0F9F1F08950F931F93CF93DF938C0109
:101A3000EB018B8181FF1BC082FF0DC02E813F8196
:101A40008C819D812817390764F4E881F98101931D
:101A5000F983E88306C0E885F985802F0995892BED
:101A600031F48E819F8101969F838E8302C00FEF98
:101A70001FEFC801DF91CF911F910F910895FA01D7
:101A8000AA27283051F1203181F1E8946F936E7FBD
:101A90006E5F7F4F8F4F9F4FAF4FB1E03ED0B4E0AE
:101AA0003CD0670F781F891F9A1FA11D680F791FEF
:101AB0008A1F911DA11D6A0F711D811D911DA11D00
:101AC00020D009F468943F912AE0269F1124301910
:101AD000305D3193DEF6CF010895462F4770405DAB
:101AE0004193B3E00FD0C9F7F6CF462F4F70405D5A
:101AF0004A3318F0495D31FD4052419302D0A9F7B5
:101B0000EACFB4E0A6959795879577956795BA95AE
:101B1000C9F700976105710508959B01AC010A2E74
:101B200006945795479537952795BA95C9F7620F4B
:101B3000731F841F951FA01D08952F923F924F92EF
:101B40005F926F927F928F929F92AF92BF92CF924D
:101B5000DF92EF92FF920F931F93CF93DF93CDB756
:101B6000DEB7CA1BDB0B0FB6F894DEBF0FBECDBFCE
:101B700009942A88398848885F846E847D848C849F
:101B80009B84AA84B984C884DF80EE80FD800C81A8
:101B90001B81AA81B981CE0FD11D0FB6F894DEBF8B
:0C1BA0000FBECDBFED010895F894FFCFFB
:101BAC00565372256325632563004D41433D005612
:101BBC0053612563005653722563256325730049D1
:101BCC00503D000000000200000000E70A00000089
:101BDC00000000000200000000E70A0000000056B0
:101BEC00536D52343730307376633031000000005F
:101BFC0000000000006D52343730307376633032A1
:101C0C000000000000000000006D523437303073CB
:101C1C00766330330000000000000000006D523489
:101C2C003730307376633034000000000000000061
:101C3C00006D52343730307376633035000000005D
:101C4C0000000000006D523437303073766330364C
:101C5C000000000000000000006D5234373030737B
:101C6C00766330370000000000000000006D523435
:101C7C00373030737663303800000000000000000D
:0A1C8C000003030303030303030036
:00000001FF
