:100000000C9434000C9451000C9451000C94510049
:100010000C9451000C9451000C9451000C9451001C
:100020000C9451000C9451000C9451000C9451000C
:100030000C9451000C9451000C9451000C945100FC
:100040000C9433060C9451000C9469060C945100E6
:100050000C9451000C9451000C9451000C945100DC
:100060000C9451000C94510011241FBECFEFD8E026
:10007000DEBFCDBF11E0A0E0B1E0EEEFF6E102C0DF
:1000800005900D92AC3EB107D9F713E0ACEEB1E0AC
:1000900001C01D92A138B107E1F70E94A1060C949E
:1000A0007D0B0C94000025982D9A559A569A209A0B
:1000B000219A549A579A539A529A229A249A2C988F
:1000C0005D985E98289829985C985F985B985A98F4
:1000D0000895FC01EB57FF4F80E010828F5F7D9603
:1000E0008830D9F7089581E090E0089581E090E0AC
:1000F000089581E090E008958330B1F0843028F4D1
:10010000813071F0823070F409C0853089F085301B
:1001100068F0863079F0873081F40EC05D9A0895DA
:100120005E9A0895289A0895299A08955C9A0895E8
:100130005F9A08955B9A08955A9A08958330B1F0B2
:10014000843028F4813071F0823070F409C0853039
:1001500089F0853068F0863079F0873081F40EC000
:100160005D9808955E9808952898089529980895AF
:100170005C9808955F9808955B9808955A9808953B
:100180008F929F92AF92BF92CF92DF92EF92FF92A7
:100190000F931F93CF93DF93EC012E812F3F09F430
:1001A00062C18C85843509F052C0FE013C96DF01A6
:1001B0000D900020E9F77D010894E108F108EE1A9E
:1001C000FF0AB1E0EB16F10409F04DC1822F0E9445
:1001D0007C002A9A08EE11EAC8010197F1F72DB7C1
:1001E0003EB72A5030400FB6F8943EBF0FBE2DBF29
:1001F000EDB7FEB731968EE191E0ADB7BEB712967E
:100200009C938E93119780E091E0938382838A85FB
:1002100084831582F782E682F186E0860E94A70831
:10022000C8010197F1F72A988E8190E02DE130E026
:10023000AC01429FC001439F900D529F900D11242D
:10024000C80FD91FCB57DF4F81E0888353C0863456
:1002500009F05BC0FE013C96DF010D900020E9F73C
:100260007D010894E108F108EE1AFF0AB1E0EB16EF
:10027000F10409F0F8C0822F0E949E002A9A08EE2D
:1002800011EAC8010197F1F72DB73EB72A50304067
:100290000FB6F8943EBF0FBE2DBFEDB7FEB7319637
:1002A0008EE191E0ADB7BEB712969C938E931197F5
:1002B00080E091E0938382838A8584831582F7822C
:1002C000E682118610860E94A708C8010197F1F7FF
:1002D0002A988E8190E02DE130E0AC01429FC00170
:1002E000439F900D529F900D1124C80FD91FCB57DB
:1002F000DF4F188221E030E08DB79EB70A960FB627
:10030000F8949EBF0FBE8DBFB0C0823509F0ABC060
:10031000FE013C96DF010D900020E9F77D01089475
:10032000E108F108EE1AFF0AB1E0EB16F10409F05A
:100330009AC0822F90E04DE1C42ED12C8C9DF0010B
:100340008D9DF00D9C9DF00D1124EC0FFD1FEB57C2
:10035000FF4F80813EE1A32E31E0B32E90E0892E45
:1003600091E0992E8823D1F1822F0E949E002A9A33
:1003700008EE11EAC8010197F1F72DB73EB72A50F0
:1003800030400FB6F8943EBF0FBE2DBFEDB7FEB79D
:100390003196ADB7BEB71296BC92AE9211979382CA
:1003A00082828A8584831582F782E682118610868E
:1003B0000E94A708C8010197F1F72A988E8190E062
:1003C0009C012C9DC0012D9D900D3C9D900D1124F4
:1003D000C80FD91FCB57DF4F188239C0822F0E9418
:1003E0007C002A9A08EE11EAC8010197F1F78DB74F
:1003F0009EB70A970FB6F8949EBF0FBE8DBFEDB79C
:10040000FEB73196ADB7BEB71296BC92AE921197B9
:10041000938282828A8584831582F782E682F186BE
:10042000E0860E94A708C8010197F1F72A988E81FB
:1004300090E09C012C9DC0012D9D900D3C9D900D48
:100440001124C80FD91FCB57DF4F81E0888321E0EB
:1004500030E04DB75EB7465F5F4F0FB6F8945EBFB2
:100460000FBE4DBF02C020E030E0C901DF91CF9147
:100470001F910F91FF90EF90DF90CF90BF90AF90C2
:100480009F908F9008950F931F93CF93DF93DC017C
:1004900016968C91169790E02DE130E0829FF00146
:1004A000839FF00D929FF00D1124EA0FFB1FEB5775
:1004B000FF4F80812EE131E040E051E0882311F1CF
:1004C0002A9A08EE11EAC8010197F1F78DB79EB795
:1004D0000A970FB6F8949EBF0FBE8DBFEDB7FEB75B
:1004E0003196CDB7DEB73A832983538342831A9678
:1004F0008C918483158281E090E097838683918735
:1005000080871FC02A9A08EE11EAC8010197F1F707
:10051000CDB7DEB72A970FB6F894DEBF0FBECDBFBA
:10052000EDB7FEB731963A832983538342831A96F7
:100530008C918483158281E090E097838683118675
:1005400010860E94A708C8010197F1F72A988DB775
:100550009EB70A960FB6F8949EBF0FBE8DBFDF916F
:10056000CF911F910F910895AF92BF92CF92DF92DA
:10057000EF92FF920F931F93CF93DF938C01EC01C7
:10058000C059DF4F6CE371E020E030E09DE1A92E1F
:10059000B12C84E1C82ED12CF901E452FE4F8081A8
:1005A0008E8B1D8AF901EC51FE4F80818883FB01FF
:1005B00001900020E9F73197E61BF70BEF8B90E0F5
:1005C0002A9DA0012B9D500D3A9D500D1124400FE6
:1005D000511F2C9D70012D9DF00C3C9DF00C1124A1
:1005E0000EC0E92FF0E0DA01AE0FBF1FAF58BF4FCA
:1005F000EE0DFF1DE45CFE4F80818C939F5F8F8921
:10060000981778F32F5F3F4F6D966C5E7F4F2830C1
:10061000310511F6F80111861082DF91CF911F91FB
:100620000F91FF90EF90DF90CF90BF90AF90089523
:10063000DF92EF92FF920F931F93CF93DF937C0192
:100640008C0100591F4FC4E1D0E0DD24DA94F80199
:10065000D082CE016FEF0E94980A035E1F4F219651
:10066000CC31D105A1F7F70111861082DF91CF912E
:100670001F910F91FF90EF90DF9008950F931F93BC
:10068000CF93DF93EC019E819F3F09F474C08C856A
:10069000843409F070C0DE011C96FD010190002039
:1006A000E9F73297EA17FB0709F065C0892F90E058
:1006B0000DE110E0809FF001819FF00D909FF00D03
:1006C0001124EC0FFD1FE059FF4F8FEF80838E81C7
:1006D00090E044966FEF0E94980A8E8190E0809F90
:1006E000F001819FF00D909FF00D1124EC0FFD1F84
:1006F000EB57FF4F8081882319F0CE010E947900CB
:100700002A9A08EE11EAC8010197F1F700D000D04B
:1007100000D0EDB7FEB731968CE291E0ADB7BEB731
:1007200012969C938E9311978AE091E09383828333
:100730008A85848315820E94A708C8010197F1F772
:100740002A98FE01E059FF4F90E02DB73EB72A5F8F
:100750003F4F0FB6F8943EBF0FBE2DBF80818F3F35
:1007600019F021E030E009C09F5F7D969830B1F725
:10077000CE010E94180320E030E0C901DF91CF9143
:100780001F910F9108950F931F93CF93DF93EC0167
:100790008C858D3609F050C0DE011C96FD0101905C
:1007A0000020E9F73297EA17FB0709F045C02A9ABB
:1007B00008EE11EAC8010197F1F72E818DE1289F1B
:1007C000900111242F583F4F2C0F3D1FD9010D9040
:1007D0000020E9F71197A21BB30B8DB79EB70A97BC
:1007E0000FB6F8949EBF0FBE8DBF4DB75EB74F5F7B
:1007F0005F4F8CE291E0EDB7FEB79283818380E199
:1008000091E0FA01938382838A8584831582B7837A
:10081000A683318720870E94A708C8010197F1F7B6
:100820002A9821E030E08DB79EB70A960FB6F8946B
:100830009EBF0FBE8DBF02C020E030E0C901DF9136
:10084000CF911F910F910895EF92FF920F931F93F5
:10085000CF93DF937C01EC012C96CE016AE171E02D
:1008600043E050E00E949908009709F089C0DE013A
:100870000D900020E9F71197AC1BBD0BA430B1051A
:1008800008F47EC0A730B10508F07AC0F701808176
:10089000813009F075C08A2F8350813019F4478563
:1008A00040531BC0823041F4D70150964C91509771
:1008B00040511F968C910CC0833079F4F701418927
:1008C000405D878524E6829FC0011124480F8089FE
:1008D0002AE0829FC0011124480FD70116968C91FF
:1008E000169790E02DE130E0829FF001839FF00D9C
:1008F000929FF00D1124EE0DFF1DE059FF4F408334
:1009000016968C9190E0829FF001839FF00D929F4C
:10091000F00D1124EE0DFF1DE059FF4F449660814C
:100920000E94980A2A9A08EE11EAC8010197F1F785
:1009300000D000D000D0EDB7FEB731968CE291E048
:10094000ADB7BEB712969C938E9311978AE091E053
:1009500093838283D7011A968C91848315820E9497
:10096000A708C8010197F1F72A9821E030E0EDB718
:10097000FEB736960FB6F894FEBF0FBEEDBF02C0AD
:1009800020E030E0C901DF91CF911F910F91FF90DE
:10099000EF900895CF93DF93EC018E818F3F99F014
:1009A0008C85833781F4DE011C96FD0101900020C7
:1009B000E9F73297EA17FB0731F4CE010E944302B0
:1009C00021E030E002C020E030E0C901DF91CF91AA
:1009D0000895CF93DF93EC010E94C303892B91F418
:1009E000CE010E942404892B69F4CE010E943E03AB
:1009F000892B41F4CE010E94CA04892B19F4CE013F
:100A00000E94C00080E090E0DF91CF910895CF93E5
:100A1000DF93382FDB01FA0119969C9119979430D6
:100A200009F459C0953058F4913081F19130D0F0EB
:100A3000923009F440C0933009F012C143C097309E
:100A400009F4E2C0983038F4953009F45FC096306C
:100A500009F006C1B4C0983009F44EC0993009F0CD
:100A6000FFC0D9C09091F501E90FF11D80813817C1
:100A700021F49F5F9093F50102C01092F5018091DF
:100A8000F501823009F0ECC081E022C01092F5013E
:100A90008D3421F08F3409F0B2C006C082E019967F
:100AA0008C9319979C93DCC082E019968C931997CC
:100AB00083E08C93D5C083E019968C9319971A968E
:100AC0003C93CEC012968C9312978730E0F084E06E
:100AD00019968C93C3C012968C91129781501296DE
:100AE0008C931297882309F0BBC08C91813011F44C
:100AF00088E08EC086E08CC013968C931397873065
:100B000010F085E085C019961C92AAC013968C91AE
:100B10001397815013968C9313978F5FD1F0909118
:100B2000F401CCEED1E0E92FF0E0EF58FF4FE60FF3
:100B3000F71F20E08081831709F421E08881820F6C
:100B400089937D9681E0C43FD80799F79F5F909382
:100B5000F40113968C911397882309F081C08FEFCD
:100B600016968C931697ED01C957DF4F20E030E0C1
:100B7000F901E451FE4F90818881981719F4169677
:100B80002C9316972F5F3F4F6D962830310581F7D4
:100B900016968C9116978F3F91F187E019968C935A
:100BA00019978091F40113968C931092F40188E0C8
:100BB000ECEEF1E0DF011D928A95E9F751C08FEF6D
:100BC00016968C931697FB01E059FF4F20E0808129
:100BD000831761F496898C91981741F416962C939B
:100BE000169787E019968C93199704C02F5F7D960E
:100BF000283069F716968C9116978F3F89F51996CC
:100C00001C9219971C922CC014968C93149789E00F
:100C100019968C9325C014968C9114978150149634
:100C20008C9314978F5F69F08091F401FB01E80FBA
:100C3000F11D34878F5F8093F401FB01E80FF11DF4
:100C4000148614968C911497882351F48AE019968F
:100C50008C9319978091F40114968C931092F4015F
:100C6000DF91CF9108951F920F920FB60F9211242A
:100C70008F939F938091F6019091F7010196909345
:100C8000F7018093F6018091F801882349F0809163
:100C90007F039091800301969093800380937F035C
:100CA00080917F0390918003893C910548F081E019
:100CB0008093F9011092F8011092800310927F0343
:100CC00085ED86BD9F918F910F900FBE0F901F9065
:100CD00018951F920F920FB60F9211242F933F93E6
:100CE0004F935F936F937F938F939F93AF93BF9334
:100CF000EF93FF938091C60062E172E04AE351E016
:100D00000E94070580911B028A3021F081E08093C8
:100D1000F80102C01092F8011092800310927F0334
:100D2000FF91EF91BF91AF919F918F917F916F91C3
:100D30005F914F913F912F910F900FBE0F901F9099
:100D400018952F923F924F925F926F927F928F925F
:100D50009F92AF92BF92CF92DF92EF92FF920F934A
:100D60001F93CF93DF9310920D0210920C021092FA
:100D70000F0210920E02109211021092100288E8D7
:100D800093E124E131E0F9013197F1F70197D9F7C7
:100D900082E192E00E94B4020E9453000E94860801
:100DA00082E192E00E94690085ED86BD85B5846090
:100DB00085BD80916E00816080936E00789481E0A3
:100DC00080931A0280EF9BE6FC013197F1F72A9895
:100DD0000197F1F768E5262E312C56E5652E712C2A
:100DE00044E5442E512C32E5832E912C20E5C22E71
:100DF000D12C9EE4A92EB12C87E7E82EF12C04E13A
:100E000011E0C6E9D5E180910C0290910D020097A6
:100E100021F08534910509F07BC01D996CC080914B
:100E20000102813079F1813030F08533E1F088338F
:100E300009F067C03EC080911A02882311F02C98F7
:100E400001C02C9A21E0209301028091F60190913B
:100E5000F7019093FE018093FD0145E350E050932C
:100E60000D0240930C028091F6019091F7012091C0
:100E7000FD013091FE01821B930B855F914008F4C8
:100E80004BC03FC08091FF0190910002019690936A
:100E900000028093FF018091F6019091F7019093F9
:100EA000FC018093FB0188E390E090930D02809316
:100EB0000C028091F6019091F7012091FB01309195
:100EC000FC01821B930B029738F18091FF019091F6
:100ED000000281569A4EA8F082E192E00E94180327
:100EE000109200021092FF0141E04093FA0152E09B
:100EF0005093010206C0109201021092000210925B
:100F0000FF0185E490E090930D0280930C0204C0F1
:100F100010920D0210920C0280910E0290910F021D
:100F20008435910509F469C08535910590F48035C3
:100F3000910589F18135910538F40097B1F08E342F
:100F4000910509F0A1C015C08235910509F09CC03A
:100F50003BC08835910509F480C08B35910529F097
:100F60008635910509F090C060C0B0920F02A09242
:100F70000E028091FA01813009F08AC02C9A80918A
:100F8000F6019091F70190930B0280930A02D092A0
:100F90000F02C0920E022091F6013091F70180916C
:100FA0000A0290910B02A901481B590BCA018152F8
:100FB000934008F46DC02C983093090220930802E6
:100FC00090920F0280920E022091F6013091F7016B
:100FD0008091080290910902A901481B590BCA018E
:100FE0008152934008F454C02C9A30930702209306
:100FF000060250920F0240920E022091F6013091AB
:10100000F7018091060290910702A901481B590B34
:10101000CA0181529340E0F12C983093050220934D
:10102000040270920F0260920E022091F60130913C
:10103000F7018091040290910502A901481B590B08
:10104000CA018152934020F12C9A309303022093DD
:10105000020230920F0220920E028091F6019091CE
:10106000F7012091020230910302821B930B8152FF
:10107000934070F02C981092FA014BE550E0509399
:101080000F0240930E0204C010920F0210920E0243
:101090008091100290911102009719F08737910505
:1010A00081F580911B028A3061F482E192E00E9416
:1010B000E904CE010197F1F72A9810921B021092D1
:1010C00012028091F9018823B9F088EE93E0F801CB
:1010D0003197F1F70197D9F72A9810921B021092D5
:1010E00012025FEF50931D021092F8011092F90165
:1010F0001092800310927F03F0921102E09210028E
:1011000082CE10921102109210027DCE1092C50074
:1011100086E48093C400E1ECF0E0808188698083FC
:101120000895982F8091C00085FFFCCF9093C60052
:101130000895FB01DC014150504030F08D91019049
:10114000801919F40020B9F7881B990B0895A0E0C5
:10115000B0E0EDEAF8E00C94560B9E01275F3F4F9C
:101160008D819E816F817885A9010E94BB082096A0
:10117000E2E00C94720BABE0B0E0E1ECF8E00C9430
:10118000460B3C012B015A01FC0117821682838118
:1011900081FD03C06FEF7FEFC6C19AE0892E1E016B
:1011A0000894211C311CF3012381F20123FD859158
:1011B00023FF81912F01882309F4B2C1853239F4CC
:1011C00023FD859123FF81912F01853229F490E041
:1011D000B3010E94BC0AE7CF982FFF24EE24992484
:1011E000FFE1FF15D0F09B3269F09C3228F4903279
:1011F00059F0933291F40EC09D3249F0903369F466
:1012000041E024C052E0F52A84E0F82A28C098E0A2
:10121000F92A25C0E0E1FE2A22C0F7FC29C0892F67
:1012200080538A3070F4F6FE05C0989C902C1124EF
:10123000980E15C0E89CE02C1124E80EF0E2FF2A7D
:101240000EC09E3229F4F6FC6BC140E4F42A07C0BC
:101250009C3619F450E8F52A02C0983649F4F20198
:1012600023FD959123FF91912F01992309F0B8CF88
:10127000892F8554833018F08052833038F444E04D
:1012800050E0A40EB51E5FE359830FC0933631F0D2
:10129000933779F0933509F056C020C0F50180816D
:1012A000898342E050E0A40EB51E610101E010E028
:1012B00012C0F501C080D180F6FC03C06FEF7FEF54
:1012C00002C0692D70E042E050E0A40EB51EC601D8
:1012D0000E94B10A8C015FE7F52214C0F501C080BD
:1012E000D180F6FC03C06FEF7FEF02C0692D70E084
:1012F00042E050E0A40EB51EC6010E94A60A8C0171
:1013000050E8F52AF3FE07C01AC080E290E0B3016E
:101310000E94BC0AEA948E2D90E008171907A8F3E2
:101320000EC0F601F7FC8591F7FE81916F0190E008
:10133000B3010E94BC0AE110EA940150104001156B
:10134000110579F7EAC0943611F0993669F5F7FE80
:1013500008C0F501208131814281538184E090E011
:101360000AC0F501808191819C01442737FD409599
:10137000542F82E090E0A80EB91E9FE6F92257FF95
:1013800009C050954095309521953F4F4F4F5F4F85
:10139000E0E8FE2ACA01B901A1012AE030E00E947A
:1013A000E80AD82ED21840C0953729F41F2D1F7E89
:1013B0002AE030E01DC01F2D197F9F3661F0903765
:1013C00020F4983509F0ACC00FC0903739F0983749
:1013D00009F0A6C004C028E030E00AC0106114FD86
:1013E000146020E130E004C014FD166020E132E01A
:1013F00017FF08C0F501608171818281938144E00B
:1014000050E008C0F50180819181BC0180E090E04E
:1014100042E050E0A40EB51EA1010E94E80AD82EB9
:10142000D2188FE7F82EF122F6FE0BC05EEFF52200
:10143000D91438F4F4FE07C0F2FC05C08FEEF82290
:1014400002C01D2D01C0192DF4FE0DC0FE01ED0DD1
:10145000F11D8081803319F499EEF92208C01F5FD5
:10146000F2FE05C003C08F2D867809F01F5F0F2D97
:10147000F3FC14C0F0FE0FC01E1510F09D2C0BC025
:101480009D2C9E0C911A1E2D06C080E290E0B301A7
:101490000E94BC0A1F5F1E15C0F304C01E1510F485
:1014A000E11A01C0EE2404FF0FC080E390E0B30115
:1014B0000E94BC0A02FF1DC001FD03C088E790E046
:1014C0000EC088E590E00BC0802F867891F001FF78
:1014D00002C08BE201C080E2F7FC8DE290E0B30134
:1014E0000E94BC0A06C080E390E0B3010E94BC0ADF
:1014F0009A94D914C0F3DA94F101ED0DF11D8081B5
:1015000090E0B3010E94BC0ADD20A9F706C080E28A
:1015100090E0B3010E94BC0AEA94EE20C1F743CEEA
:10152000F30166817781CB012B96E2E10C94620B8B
:10153000262FF999FECF1FBA92BD81BD20BD0FB6EF
:10154000F894FA9AF99A0FBE01960895FC01059055
:10155000615070400110D8F7809590958E0F9F1FB5
:101560000895FC016150704001900110D8F78095FA
:1015700090958E0F9F1F08950F931F93CF93DF9326
:101580008C01EB018B8181FF1BC082FF0DC02E817E
:101590003F818C819D812817390764F4E881F981A6
:1015A0000193F983E88306C0E885F985802F0995C2
:1015B000892B31F48E819F8101969F838E8302C097
:1015C0000FEF1FEFC801DF91CF911F910F91089589
:1015D000FA01AA27283051F1203181F1E8946F9364
:1015E0006E7F6E5F7F4F8F4F9F4FAF4FB1E03ED00A
:1015F000B4E03CD0670F781F891F9A1FA11D680FA8
:10160000791F8A1F911DA11D6A0F711D811D911DDA
:10161000A11D20D009F468943F912AE0269F11244F
:101620003019305D3193DEF6CF010895462F4770B3
:10163000405D4193B3E00FD0C9F7F6CF462F4F700E
:10164000405D4A3318F0495D31FD4052419302D06C
:10165000A9F7EACFB4E0A695979587957795679512
:10166000BA95C9F700976105710508959B01AC0112
:101670000A2E06945795479537952795BA95C9F739
:10168000620F731F841F951FA01D08952F923F9214
:101690004F925F926F927F928F929F92AF92BF9282
:1016A000CF92DF92EF92FF920F931F93CF93DF932E
:1016B000CDB7DEB7CA1BDB0B0FB6F894DEBF0FBE8B
:1016C000CDBF09942A88398848885F846E847D84D8
:1016D0008C849B84AA84B984C884DF80EE80FD80DA
:1016E0000C811B81AA81B981CE0FD11D0FB6F89450
:0E16F000DEBF0FBECDBFED010895F894FFCF11
:1016FE005653722563256325630056536125630097
:10170E005653722563256325730049503D00000032
:10171E00000200000000910800000000000000021E
:10172E000000000091080000000056536D5234373F
:10173E00303073766330310000000000000000008E
:10174E006D52343730307376633032000000000053
:10175E00000000006D523437303073766330330042
:10176E0000000000000000006D52343730307376F8
:10177E006330340000000000000000006D5234376A
:10178E00303073766330350000000000000000003A
:10179E006D523437303073766330360000000000FF
:1017AE00000000006D5234373030737663303700EE
:1017BE0000000000000000006D52343730307376A8
:1017CE006330380000000000000000000303030334
:0C17DE000303030308090A0B0C0D0E0F97
:00000001FF
