:100000002CC046C045C044C043C042C041C040C0EF
:100010003FC02AC83DC05EC83BC03AC039C038C0E6
:1000200037C036C035C066C067C068C069C06AC026
:100030006BC06CC06DC076C077C078C079C07AC024
:100040007BC07CC07DC07AC28DC2B8C2DDC2E6C2B0
:1000500050C3ADC3CFC343C3D4C311241FBECFE528
:10006000D4E0DEBFCDBF11E0A0E6B0E0E4E3FBE109
:1000700002C005900D92A436B107D9F712E0A4E6AC
:10008000B1E001C01D92A83FB107E1F759D850CDAA
:10009000B7CFBD98C59A8D9A8E9AB89AB99A8C9A0C
:1000A0008F9A8B9A8A9ABA9ABC9AC498959896987D
:1000B000C098C19894989798939892980895FC0145
:1000C000EC57FF4F80E010828F5F7D968830D9F724
:1000D000089581E090E0089581E090E0089581E046
:1000E00090E00895E82FF0E0E830F10590F4ED5E3F
:1000F000FF4F0994959A0895969A0895C09A089585
:10010000C19A0895949A0895979A0895939A089594
:10011000929A0895E82FF0E0E830F10590F4E55E5A
:10012000FF4F09949598089596980895C09808955A
:10013000C19808959498089597980895939808956C
:10014000929808958F929F92AF92BF92CF92DF9232
:10015000EF92FF920F931F93CF93DF93EC012E81C9
:100160002F3F09F45AC18B85843509F050C0FE0138
:100170003B96DF010D900020E9F77D010894E1082E
:10018000F108EE1AFF0AB1E0EB16F10409F045C1DF
:10019000822FA8DFC29A08EE11EAC8010197F1F791
:1001A0002DB73EB72A5030400FB6F8943EBF0FBE71
:1001B0002DBFEDB7FEB731968FE890E0ADB7BEB773
:1001C00012969C938E93119780E690E0938382839E
:1001D0008A8584831582F782E682F186E086ACD92F
:1001E000C8010197F1F7C2988E8190E02DE130E0CF
:1001F000AC01429FC001439F900D529F900D11246E
:10020000C80FD91FCC57DF4F81E0888351C0863497
:1002100009F059C0FE013B96DF010D900020E9F77F
:100220007D010894E108F108EE1AFF0AB1E0EB162F
:10023000F10409F0F2C0822F6DDFC29A08EE11EAD4
:10024000C8010197F1F72DB73EB72A5030400FB6DD
:10025000F8943EBF0FBE2DBFEDB7FEB731968FE8C5
:1002600090E0ADB7BEB712969C938E93119780E63F
:1002700090E0938382838A8584831582F782E68265
:100280001186108659D9C8010197F1F7C2988E815D
:1002900090E02DE130E0AC01429FC001439F900D02
:1002A000529F900D1124C80FD91FCC57DF4F1882D1
:1002B00021E030E08DB79EB70A960FB6F8949EBF46
:1002C0000FBE8DBFACC0823509F0A7C0FE013B96C2
:1002D000DF010D900020E9F77D010894E108F108A5
:1002E000EE1AFF0AB1E0EB16F10409F096C0822F76
:1002F00090E04DE1C42ED12C8C9DF0018D9DF00D30
:100300009C9DF00D1124EC0FFD1FEC57FF4F8081D9
:100310003FE8A32E30E0B32E90E6892E90E0992E90
:100320008823C1F1822FF6DEC29A08EE11EAC801D5
:100330000197F1F72DB73EB72A5030400FB6F89429
:100340003EBF0FBE2DBFEDB7FEB73196ADB7BEB7FE
:100350001296BC92AE921197938282828A85848390
:100360001582F782E68211861086E6D8C8010197C9
:10037000F1F7C2988E8190E09C012C9DC0012D9DCB
:10038000900D3C9D900D1124C80FD91FCC57DF4F05
:10039000188237C0822FA6DEC29A08EE11EAC80181
:1003A0000197F1F78DB79EB70A970FB6F8949EBFE5
:1003B0000FBE8DBFEDB7FEB73196ADB7BEB7129683
:1003C000BC92AE921197938282828A858483158231
:1003D000F782E682F186E086AFD8C8010197F1F78F
:1003E000C2988E8190E09C012C9DC0012D9D900DA6
:1003F0003C9D900D1124C80FD91FCC57DF4F81E0D1
:10040000888321E030E04DB75EB7465F5F4F0FB69F
:10041000F8945EBF0FBE4DBF02C020E030E0C901BE
:10042000DF91CF911F910F91FF90EF90DF90CF90D0
:10043000BF90AF909F908F9008950F931F93CF938D
:10044000DF93DC0116968C91169790E02DE130E059
:10045000829FF001839FF00D929FF00D1124EA0F0F
:10046000FB1FEC57FF4F80812FE830E040E650E063
:10047000882311F1C29A08EE11EAC8010197F1F739
:100480008DB79EB70A970FB6F8949EBF0FBE8DBF6B
:10049000EDB7FEB73196CDB7DEB73A8329835383E4
:1004A00042831A968C918483158281E090E0978331
:1004B0008683918780871FC0C29A08EE11EAC8011F
:1004C0000197F1F7CDB7DEB72A970FB6F894DEBFE4
:1004D0000FBECDBFEDB7FEB731963A832983538364
:1004E00042831A968C918483158281E090E09783F1
:1004F00086831186108620D8C8010197F1F7C2982B
:100500008DB79EB70A960FB6F8949EBF0FBE8DBFEB
:10051000DF91CF911F910F910895CF93DF93282FF3
:10052000DB01EA0119968C911997E82FF0E0EA3087
:10053000F10508F08BC1ED5DFF4F099490916D01BD
:10054000C90FD11D8881281721F49F5F90936D01F9
:1005500002C010926D0180916D01823009F076C168
:1005600081E059C02D3451F02E3418F42934F9F4B7
:1005700012C02F3449F02136D1F413C082E019960D
:100580008C93199781E005C082E019968C93199796
:1005900083E08C9310C082E019968C93199784E0C5
:1005A000F8CF82E019968C93199785E0F2CF1996CF
:1005B0001C9219971C9210926D0148C11A968C9149
:1005C0001A979C918217A9F0963021F41C921996E3
:1005D0001C9219979C91892F8350823018F091308A
:1005E00009F034C183E019968C9319971A962C93CD
:1005F0002DC1963039F417968C911797863011F4E7
:100600008AE0FCC01C9272C012962C93129727307D
:1006100008F46CC084E019968C9316C111968C91E5
:10062000119712969C911297882371F1915012960E
:100630009C9312979F5F89F090916C01FB01E90FE9
:10064000F11DE85AFE4F8081821721F49F5F90933D
:100650006C0103C019961C92199712968C911297EF
:10066000882309F0F3C0A95ABE4F90916C018C9178
:10067000A755B140981709F095C08C91813011F4BD
:1006800088E0C9CF86E0C7CF915012969C9312970D
:100690009F5F89F080916C01FB01E80FF11DE85A22
:1006A000FE4F20838F5F80936C01FB01E80FF11DEB
:1006B000E85AFE4F108212968C911297882309F007
:1006C000C5C08C91813011F488E001C086E0199694
:1006D0008C93199780916C0112968C93B5C01396E8
:1006E0002C931397273010F085E088C019961C9240
:1006F000ADC013968C911397815013968C931397DA
:100700008F5FD1F090916C01C4E6D1E0E92FF0E069
:10071000E059FF4FE60FF71F30E08081821709F4A0
:1007200031E08881830F89937D9681E0CC36D807AC
:1007300099F79F5F90936C0113968C911397882380
:1007400009F084C08FEF16968C931697ED01CA5767
:10075000DF4F20E030E0F901EC59FE4F90818881B5
:10076000981719F416962C9316972F5F3F4F6D9696
:100770002830310581F716968C9116978F3F91F0AE
:1007800087E019968C93199780916C0113968C933E
:1007900010926C0188E0E4E6F1E0DF011D928A9599
:1007A000E9F754C019961C9219971C924FC08FEF0D
:1007B00016968C9316973C9130936C01FB01E1598E
:1007C000FF4F90E08081821761F48689381749F4E1
:1007D00016969C93169787E019968C9319973C93DD
:1007E00033C019961C9219971C929F5F7D96983082
:1007F00049F72CC014962C93149789E019968C9382
:1008000025C014968C911497815014968C9314974C
:100810008F5F69F080916C01FB01E80FF11D238768
:100820008F5F80936C01FB01E80FF11D1386149616
:100830008C911497882351F48AE019968C93199718
:1008400080916C0114968C9310926C01DF91CF9182
:1008500008950F931F93CF93DF93EC018C01055FF5
:100860001F4FC8016AE670E044E050E057D6009799
:1008700009F0A6C0F80101900020E9F73197E01BCC
:10088000F10B3C9708F49CC08E812DE1829FC00142
:10089000112480599F4F8C0F9D1FFC0184E1DF01C3
:1008A0001D928A95E9F78E81829FC001112480599B
:1008B0009F4FBE01615F7F4F8C0F9D1F28D68E8199
:1008C00090E00DE110E0809FF001819FF00D909F7E
:1008D000F00D1124E059FF4FCE018E0F9F1FE057FE
:1008E000F040DC010D900020E9F71197A81BB90B2F
:1008F000EC0FFD1FEA57FF4FA0838E8190E0809F91
:10090000F001819FF00D909FF00D1124EC0FFD1F61
:10091000EA57FF4F4E96608127D88E8190E0809FE6
:10092000D001819FB00D909FB00D112424E130E0E3
:10093000829FB001839F700D929F700D11246C599E
:100940007F4FFE01EA0FFB1FEA57FF4F4081A0597E
:10095000BF4FCE018A0F9B1F50E0FDD7C29A08EE11
:1009600011EAC8010197F1F78DB79EB708970FB646
:10097000F8949EBF0FBE8DBFEDB7FEB731968DE9DF
:1009800090E0ADB7BEB712969C938E931197938368
:1009900082838FE690E0958384838A85868317829D
:1009A000CBD5C8010197F1F7C29821E030E08DB7AF
:1009B0009EB708960FB6F8949EBF0FBE8DBF02C0BB
:1009C00020E030E0C901DF91CF911F910F91089590
:1009D0000F931F93CF93DF93EC018B858D3609F036
:1009E00083C0DE011B96FD0101900020E9F73297DC
:1009F000EA17FB0709F078C08E8190E02DE130E026
:100A0000829FA001839F500D929F500D1124FE01E3
:100A1000E40FF51FE159FF4F80818F3F39F588853D
:100A2000882309F461C0C29A08EE11EAC80101974F
:100A3000F1F79A0120593F4F2C0F3D1FD9010D901E
:100A40000020E9F71197A21BB30B8DB79EB70A9749
:100A50000FB6F8949EBF0FBE8DBF4DB75EB74F5F08
:100A60005F4F8DE990E0EDB7FEB720C0C29A08EE67
:100A700011EAC8010197F1F79A0120593F4F2C0F55
:100A80003D1FD9010D900020E9F71197A21BB30B70
:100A9000EDB7FEB73A970FB6F894FEBF0FBEEDBFA5
:100AA0004DB75EB74F5F5F4F8DE990E092838183D2
:100AB00085E790E0FA01938382838A858483158297
:100AC000B783A6833187208737D5C8010197F1F70F
:100AD000C29821E030E08DB79EB70A960FB6F89421
:100AE0009EBF0FBE8DBF02C020E030E0C901DF9184
:100AF000CF911F910F910895CF92DF92EF92FF92C5
:100B00000F931F93CF93DF93EC018C01055F1F4F71
:100B1000C8016FE770E043E050E000D59C0100970A
:100B200009F0A6C0D8010D900020E9F71197A01B8D
:100B3000B10BA430B10508F49BC0A730B10508F093
:100B400097C08881813009F093C08885882309F493
:100B50008FC08A2F8350813019F43E85305316C0E0
:100B6000823021F43F8530518E850BC0833071F483
:100B70003889305D8E8524E6829FC0011124380FAC
:100B80008F852AE0829FC0011124380F8E8190E06A
:100B90002DE1C22ED12C8C9DF0018D9DF00D9C9DE0
:100BA000F00D1124EC0FFD1FE159FF4F308381E060
:100BB000898388E5E82E81E0F82EEC0EFD1EF70112
:100BC00001900020E9F73197EE19FF098E01095ACB
:100BD0001E4FD801EC9381E090E061E0C5D68E8194
:100BE00090E08C9DF0018D9DF00D9C9DF00D1124E9
:100BF000EC0FFD1FE159FF4F44966081B5D685E0AB
:100C000090E0F8016081B0D6D8014C91C70168E24C
:100C100070E050E0A0D6CE015FDAC29A08EE11EA89
:100C2000C8010197F1F700D000D000D0EDB7FEB7B2
:100C300031968DE990E0ADB7BEB712969C938E9336
:100C400011978FE690E0938382838A85848315824F
:100C500073D4C8010197F1F7C29821E030E0EDB7F5
:100C6000FEB736960FB6F894FEBF0FBEEDBF02C0BA
:100C700020E030E0C901DF91CF911F910F91FF90EB
:100C8000EF90DF90CF900895CF93DF93EC018E81AA
:100C90008F3F91F08B85833779F4DE011B96FD0140
:100CA00001900020E9F73297EA17FB0729F4CE01FB
:100CB000C4DB21E030E002C020E030E0C901DF9178
:100CC000CF9108954F925F926F927F929F92AF92D1
:100CD000BF92CF92DF92EF92FF920F931F93CF9329
:100CE000DF935C0180E090E02ED6813009F067C090
:100CF00080E090E061E038D681E090E060E034D6BA
:100D000082E090E060E030D68AE090E060E02CD6AF
:100D100084E090E060E028D685E090E060E024D6B2
:100D200000E010E0CC24DD2474E1472E512CC801F2
:100D300044966FEF19D6F801E55AFE4FC801CC96DC
:100D4000608112D66BEBE62E60E0F62EEC0CFD1CFB
:100D5000F70101900020E9F73197EE19FF09C8016A
:100D60004E966E2F01D6BB24049D3001059D700C5C
:100D7000149D700C11240CC0CE018C0D9D1DC60D50
:100D8000D71DC554DF4F8C599F4F6881EDD5B39463
:100D9000CB2DD0E0F70101900020E9F73197EE1953
:100DA000FF09CE17DF0740F30F5F1F4F84E190E08C
:100DB000C80ED91E0830110509F0B9CF78C081E0FE
:100DC00090E0C1D5D50111968C9382E090E0BBD51F
:100DD000F50185835FE6E52EF12CEA0CFB1CC0E0F3
:100DE000D0E044E6642E712C3DE1432E512CCE011F
:100DF000CC96A9D5D70156968C93CE010A96A3D549
:100E0000F701858BCE0144969ED5D7018C93CE01F8
:100E10004E9699D5F701878B9924C49D6001C59D95
:100E2000D00CD49DD00C1124CA0CDB1C0DC0092D94
:100E300010E0C801860D971D86D50C0D1D1D0059AB
:100E40001F4FD8018C939394F7018789981678F3F4
:100E500021968DE190E0E80EF91EA4E1B0E06A0E63
:100E60007B1EC830D10519F685E090E06CD5F50100
:100E7000E95AFE4F8083D50111968C91882391F019
:100E8000FF24EF010CC00F2D10E0C80188965BD540
:100E90000A0D1B1D085A1E4FF8018083F3948881A8
:100EA000F81688F3D50119961C9219971C92DF91B8
:100EB000CF911F910F91FF90EF90DF90CF90BF9057
:100EC000AF909F907F906F905F904F900895DF92CA
:100ED000EF92FF920F931F93CF93DF937C01FC015E
:100EE000118281E090E060E03FD585E090E0F7017D
:100EF00062813AD5870101591F4FC4E1D0E0DD245A
:100F0000DA94F801D082CE016FEF2ED5035E1F4F29
:100F10002196CC31D105A9F7C701DBD8DF91CF915C
:100F20001F910F91FF90EF90DF9008950F931F9303
:100F3000CF93DF93EC019E819F3F09F470C08B85B6
:100F4000843409F06CC0DE011B96FD010190002085
:100F5000E9F73297EA17FB0709F061C0892F90E0A3
:100F60000DE110E0809FF001819FF00D909FF00D4A
:100F70001124EC0FFD1FE159FF4F8FEF80838E810D
:100F800090E044966FEFF0D48E8190E0809FF00166
:100F9000819FF00D909FF00D1124EC0FFD1FEC5779
:100FA000FF4F8081882311F0CE0199D8C29A08EEB4
:100FB00011EAC8010197F1F700D000D000D0EDB7D9
:100FC000FEB731968DE990E0ADB7BEB712969C930F
:100FD0008E9311978FE690E0938382838A85848332
:100FE0001582AAD2C8010197F1F7C298FE01E15912
:100FF000FF4F90E02DB73EB72A5F3F4F0FB6F894F2
:101000003EBF0FBE2DBF80818F3F19F021E030E041
:1010100008C09F5F7D969830B1F7CE0158DF20E081
:1010200030E0C901DF91CF911F910F910895CF93C7
:10103000DF93EC01CDDC892B91F4CE015DDD892BB2
:1010400071F4CE0106DC892B51F4CE016FDF892BC0
:1010500031F4CE0119DE892B11F4CE0173D880E072
:1010600090E0DF91CF9108951F920F920FB60F92EB
:1010700011248F939F9380916E0190916F0101963F
:1010800090936F0180936E0180917001882349F0E5
:101090008091F6029091F70201969093F702809367
:1010A000F6028091F6029091F702893C910548F092
:1010B00081E080937101109270011092F7021092FA
:1010C000F60285ED82BF9F918F910F900FBE0F901A
:1010D0001F9018951F920F920FB60F9211242F9305
:1010E0003F934F935F936F937F938F939F93AF93B0
:1010F000BF93EF93FF938CB16AE871E04BEA50E045
:101100000CDA809193018A3021F081E080937001A4
:1011100002C0109270011092F7021092F602FF9135
:10112000EF91BF91AF919F918F917F916F915F915F
:101130004F913F912F910F900FBE0F901F901895D8
:101140002F923F924F925F926F927F928F929F92D7
:10115000AF92BF92CF92DF92EF92FF920F931F93C5
:10116000CF93DF9310928501109284011092870132
:101170001092860110928901109288018AE891E00C
:10118000A1DD87D7B6D18AE891E099D785ED82BFF6
:1011900083B7846083BF89B7816089BF789481E019
:1011A0008093920180EF9BE6FC013197F1F7C298A2
:1011B0000197F1F7C29A08EE11EAC8010197F1F719
:1011C00083E890E06DEA70E0C8D1C8010197F1F7BB
:1011D000C29801E012E068E5462E512C56E5252E16
:1011E000312C44E5642E712C32E5A32EB12C20E580
:1011F000822E912C9EE4C92ED12C85E7E82EF12C6D
:10120000C6E9D5E18091840190918501009721F094
:101210008534910509F07BC0B5996CC08091790146
:10122000813091F1813030F08533F9F0883309F065
:1012300067C041C080919201882321F0C498109228
:10124000920103C0C49A00939201009379018091A6
:101250006E0190916F01909376018093750145E343
:1012600050E0509385014093840180916E019091EC
:101270006F012091750130917601821B930B855F80
:10128000914008F448C03CC080917701909178016A
:101290000196909378018093770180916E019091EF
:1012A0006F01909374018093730188E390E09093B1
:1012B00085018093840180916E0190916F0120914E
:1012C000730130917401821B930B029720F180917E
:1012D00077019091780181569A4E90F08AE891E0DA
:1012E000F6DD10927801109277010093720110934D
:1012F000790106C01092790110927801109277015D
:1013000045E450E0509385014093840104C010925D
:101310008501109284018091860190918701843526
:10132000910509F469C08535910590F480359105E2
:1013300089F18135910538F40097B1F08E3491052B
:1013400009F0A1C015C08235910509F09CC03BC0D1
:101350008835910509F480C08B35910529F08635D3
:10136000910509F090C060C0D0928701C0928601BB
:1013700080917201813009F08AC0C49A80916E0117
:1013800090916F01909383018093820190928701E5
:101390008092860120916E0130916F0180918201CF
:1013A00090918301A901481B590BCA0181529340B6
:1013B00008F46DC0C4983093810120938001B092ED
:1013C0008701A092860120916E0130916F0180917A
:1013D000800190918101A901481B590BCA018152DA
:1013E000934008F454C0C49A30937F0120937E0147
:1013F000709287016092860120916E0130916F0199
:1014000080917E0190917F01A901481B590BCA016F
:1014100081529340E0F1C49830937D0120937C0188
:10142000309287012092860120916E0130916F01E8
:1014300080917C0190917D01A901481B590BCA0143
:101440008152934020F1C49A30937B0120937A011A
:10145000509287014092860180916E0190916F01B8
:1014600020917A0130917B01821B930B8152934032
:1014700070F0C498109272014BE550E050938701D0
:101480004093860104C010928701109286018091DA
:10149000880190918901009719F08537910521F510
:1014A000809193018A3059F48AE891E0C0DDCE0141
:1014B0000197F1F7C2981092930110928A018091DE
:1014C0007101882361F01092930110928A011092A9
:1014D0007001109271011092F7021092F602F092D0
:1014E0008901E09288018ECE1092890110928801C4
:1014F00089CE10BC86E489B98AB188698AB980B579
:10150000866880BD08955D9BFECF8CB90895FB0170
:10151000DC0101900D920020E1F70895FB01DC0150
:101520004150504030F08D910190801919F4002005
:10153000B9F7881B990B0895A0E0B0E0E1EAFAE062
:10154000D0C29E01275F3F4F8D819E816F8178853C
:10155000A9012BD02096E2E0E0C2EF92FF920F9318
:101560001F93CF93DF937C018B01DB0113968C914A
:1015700081FD03C0CFEFDFEF13C0C0E0D0E00BC0B0
:10158000D8011896ED91FC911997B8010995892B0E
:1015900011F0CFEFDFEFF70181917F01882381F711
:1015A000CE01CDB7DEB7E6E0B4C2ABE0B0E0EAED25
:1015B000FAE087C23C012B015A01FC011782168216
:1015C000838181FD03C06FEF7FEFB9C19AE0892E5F
:1015D0001E010894211C311CF3012381F20123FD1B
:1015E000859123FF81912F01882309F4A5C18532BC
:1015F00039F423FD859123FF81912F01853221F458
:1016000090E0B301D4D1E8CF982FFF24EE249924A1
:10161000FFE1FF15D0F09B3269F09C3228F4903244
:1016200059F0933291F40EC09D3249F0903369F431
:1016300041E024C052E0F52A84E0F82A28C098E06E
:10164000F92A25C0E0E1FE2A22C0F7FC29C0892F33
:1016500080538A3070F4F6FE05C0989C902C1124BB
:10166000980E15C0E89CE02C1124E80EF0E2FF2A49
:101670000EC09E3229F4F6FC5FC140E4F42A07C094
:101680009C3619F450E8F52A02C0983649F4F20164
:1016900023FD959123FF91912F01992309F0B8CF54
:1016A000892F8554833018F08052833038F444E019
:1016B00050E0A40EB51E5FE359830FC0933631F09E
:1016C000933779F0933509F052C01FC0F50180813E
:1016D000898342E050E0A40EB51E610101E010E0F4
:1016E00011C0F501C080D180F6FC03C06FEF7FEF21
:1016F00002C0692D70E042E050E0A40EB51EC601A4
:101700004BD18C015FE7F52213C0F501C080D18079
:10171000F6FC03C06FEF7FEF02C0692D70E042E07E
:1017200050E0A40EB51EC6012CD18C0150E8F52A5C
:10173000F3FE06C018C080E290E0B30138D1EA940D
:101740008E2D90E008171907B0F30DC0F601F7FCD5
:101750008591F7FE81916F0190E0B30128D1E110EE
:10176000EA94015010400115110581F7E2C094364A
:1017700011F0993661F5F7FE08C0F501208131813D
:101780004281538184E090E00AC0F501808191811B
:101790009C01442737FD4095542F82E090E0A80E2D
:1017A000B91E9FE6F92257FF09C050954095309524
:1017B00021953F4F4F4F5F4FE0E8FE2ACA01B90124
:1017C000A1012AE030E01FD1D82ED2183FC09537B2
:1017D00029F41F2D1F7E2AE030E01DC01F2D197F28
:1017E0009F3661F0903720F4983509F0A5C00FC0FE
:1017F000903739F0983709F09FC004C028E030E0F6
:101800000AC0106114FD146020E130E004C014FD32
:10181000166020E132E017FF08C0F5016081718198
:101820008281938144E050E008C0F501808191817C
:10183000BC0180E090E042E050E0A40EB51EA101A2
:10184000E2D0D82ED2188FE7F82EF122F6FE0BC088
:101850005EEFF522D91438F4F4FE07C0F2FC05C09F
:101860008FEEF82202C01D2D01C0192DF4FE0DC00F
:10187000FE01ED0DF11D8081803319F499EEF922FE
:1018800008C01F5FF2FE05C003C08F2D867809F0E7
:101890001F5F0F2DF3FC13C0F0FE0EC01E1510F0DD
:1018A0009D2C0AC09D2C9E0C911A1E2D05C080E215
:1018B00090E0B3017CD01F5F1E15C8F304C01E1555
:1018C00010F4E11A01C0EE2404FF0EC080E390E0A2
:1018D000B3016DD002FF1BC001FD03C088E790E09B
:1018E0000EC088E590E00BC0802F867881F001FF64
:1018F00002C08BE201C080E2F7FC8DE290E0B30110
:1019000056D005C080E390E0B30151D09A94D91429
:10191000C8F3DA94F101ED0DF11D808190E0B3017F
:1019200046D0DD20B1F705C080E290E0B3013FD0A2
:10193000EA94EE20C9F750CEF30166817781CB019E
:101940002B96E2E1DAC0E199FECF9FBB8EBBE09A15
:1019500099278DB30895DC01CB0102C02D9105D0EC
:1019600041505040D8F70895262FE199FECF9FBBF4
:101970008EBB2DBB0FB6F894E29AE19A0FBE01968A
:101980000895FC010590615070400110D8F78095D2
:1019900090958E0F9F1F0895FC016150704001903B
:1019A0000110D8F7809590958E0F9F1F08950F9383
:1019B0001F93CF93DF938C01EB018B8181FF1BC0C1
:1019C00082FF0DC02E813F818C819D8128173907B0
:1019D00064F4E881F9810193F983E88306C0E8851E
:1019E000F985802F0995892B31F48E819F8101968D
:1019F0009F838E8302C00FEF1FEFC801DF91CF914D
:101A00001F910F910895FA01AA27283051F1203132
:101A100081F1E8946F936E7F6E5F7F4F8F4F9F4F82
:101A2000AF4FB1E03ED0B4E03CD0670F781F891FC4
:101A30009A1FA11D680F791F8A1F911DA11D6A0F92
:101A4000711D811D911DA11D20D009F468943F9145
:101A50002AE0269F11243019305D3193DEF6CF0144
:101A60000895462F4770405D4193B3E00FD0C9F70A
:101A7000F6CF462F4F70405D4A3318F0495D31FD77
:101A80004052419302D0A9F7EACFB4E0A6959795CA
:101A9000879577956795BA95C9F7009761057105A0
:101AA00008959B01AC010A2E0694579547953795EA
:101AB0002795BA95C9F7620F731F841F951FA01D44
:101AC00008952F923F924F925F926F927F928F92E2
:101AD0009F92AF92BF92CF92DF92EF92FF920F93BD
:101AE0001F93CF93DF93CDB7DEB7CA1BDB0B0FB6C7
:101AF000F894DEBF0FBECDBF09942A883988488884
:101B00005F846E847D848C849B84AA84B984C88419
:101B1000DF80EE80FD800C811B81AA81B981CE0F10
:101B2000D11D0FB6F894DEBF0FBECDBFED010895F5
:041B3000F894FFCF57
:101B3400565372256325632563004D41433D00568A
:101B44005361256300565372256325632573004949
:101B5400503D0068656C6C6F20776F726C64000098
:101B640000000200000000830A00000000000000E2
:101B74000200000000830A00000000565300000029
:101B84000200000000830A000000006D5234373068
:101B94003073766330310000000000000000006DF7
:101BA4005234373030737663303200000000000066
:101BB4000000006D523437303073766330330000E8
:101BC400000000000000006D52343730307376633B
:101BD40030340000000000000000006D5234373043
:101BE4003073766330350000000000000000006DA3
:101BF4005234373030737663303600000000000012
:101C04000000006D52343730307376633037000093
:101C1400000000000000006D5234373030737663EA
:101C24003038000000000000000000030303030339
:041C340003030300A3
:00000001FF
